{
  "contracts/claim/FeeLevelJudgeStub.sol": {
    "FeeLevelJudgeStub": {
      "abi": [
        {
          "inputs": [
            {
              "internalType": "uint256",
              "name": "_feeLevel",
              "type": "uint256"
            }
          ],
          "stateMutability": "nonpayable",
          "type": "constructor"
        },
        {
          "inputs": [
            {
              "internalType": "address",
              "name": "",
              "type": "address"
            }
          ],
          "name": "getFeeLevel",
          "outputs": [
            {
              "internalType": "uint256",
              "name": "",
              "type": "uint256"
            }
          ],
          "stateMutability": "view",
          "type": "function"
        }
      ],
      "evm": {
        "bytecode": {
          "linkReferences": {},
          "object": "60803461005057601f6100f638819003918201601f19168301916001600160401b03831184841017610055578084926020946040528339810103126100505751600055604051608a908161006c8239f35b600080fd5b634e487b7160e01b600052604160045260246000fdfe6080806040526004361015601257600080fd5b600090813560e01c63b31c878114602857600080fd5b3460505760203660031901126050576004356001600160a01b03811603605057602091548152f35b5080fdfea2646970667358221220ebc30b4cd5bc3b445992383f0132a1d11f836c1581bc84a3f9549a8337dc327b64736f6c63430008150033",
          "opcodes": "PUSH1 0x80 CALLVALUE PUSH2 0x50 JUMPI PUSH1 0x1F PUSH2 0xF6 CODESIZE DUP2 SWAP1 SUB SWAP2 DUP3 ADD PUSH1 0x1F NOT AND DUP4 ADD SWAP2 PUSH1 0x1 PUSH1 0x1 PUSH1 0x40 SHL SUB DUP4 GT DUP5 DUP5 LT OR PUSH2 0x55 JUMPI DUP1 DUP5 SWAP3 PUSH1 0x20 SWAP5 PUSH1 0x40 MSTORE DUP4 CODECOPY DUP2 ADD SUB SLT PUSH2 0x50 JUMPI MLOAD PUSH1 0x0 SSTORE PUSH1 0x40 MLOAD PUSH1 0x8A SWAP1 DUP2 PUSH2 0x6C DUP3 CODECOPY RETURN JUMPDEST PUSH1 0x0 DUP1 REVERT JUMPDEST PUSH4 0x4E487B71 PUSH1 0xE0 SHL PUSH1 0x0 MSTORE PUSH1 0x41 PUSH1 0x4 MSTORE PUSH1 0x24 PUSH1 0x0 REVERT INVALID PUSH1 0x80 DUP1 PUSH1 0x40 MSTORE PUSH1 0x4 CALLDATASIZE LT ISZERO PUSH1 0x12 JUMPI PUSH1 0x0 DUP1 REVERT JUMPDEST PUSH1 0x0 SWAP1 DUP2 CALLDATALOAD PUSH1 0xE0 SHR PUSH4 0xB31C8781 EQ PUSH1 0x28 JUMPI PUSH1 0x0 DUP1 REVERT JUMPDEST CALLVALUE PUSH1 0x50 JUMPI PUSH1 0x20 CALLDATASIZE PUSH1 0x3 NOT ADD SLT PUSH1 0x50 JUMPI PUSH1 0x4 CALLDATALOAD PUSH1 0x1 PUSH1 0x1 PUSH1 0xA0 SHL SUB DUP2 AND SUB PUSH1 0x50 JUMPI PUSH1 0x20 SWAP2 SLOAD DUP2 MSTORE RETURN JUMPDEST POP DUP1 REVERT INVALID LOG2 PUSH5 0x6970667358 0x22 SLT KECCAK256 0xEB 0xC3 SIGNEXTEND 0x4C 0xD5 0xBC EXTCODESIZE PREVRANDAO MSIZE SWAP3 CODESIZE EXTCODEHASH ADD ORIGIN LOG1 0xD1 0x1F DUP4 PUSH13 0x1581BC84A3F9549A8337DC327B PUSH5 0x736F6C6343 STOP ADDMOD ISZERO STOP CALLER "
        },
        "methodIdentifiers": {
          "getFeeLevel(address)": "b31c8781"
        }
      }
    }
  }
}