{
  "_format": "hh-sol-artifact-1",
  "contractName": "FlatPriceSale_v_3",
  "sourceName": "contracts/sale/v3/FlatPriceSale.sol",
  "abi": [
    {
      "inputs": [
        {
          "internalType": "address",
          "name": "_networkConfig",
          "type": "address"
        }
      ],
      "stateMutability": "nonpayable",
      "type": "constructor"
    },
    {
      "anonymous": false,
      "inputs": [
        {
          "indexed": true,
          "internalType": "address",
          "name": "buyer",
          "type": "address"
        },
        {
          "indexed": true,
          "internalType": "address",
          "name": "token",
          "type": "address"
        },
        {
          "indexed": false,
          "internalType": "uint256",
          "name": "baseCurrencyValue",
          "type": "uint256"
        },
        {
          "indexed": false,
          "internalType": "uint256",
          "name": "tokenValue",
          "type": "uint256"
        },
        {
          "indexed": false,
          "internalType": "uint256",
          "name": "tokenFee",
          "type": "uint256"
        }
      ],
      "name": "Buy",
      "type": "event"
    },
    {
      "anonymous": false,
      "inputs": [
        {
          "indexed": false,
          "internalType": "contract INetworkConfig",
          "name": "networkConfig",
          "type": "address"
        }
      ],
      "name": "ImplementationConstructor",
      "type": "event"
    },
    {
      "anonymous": false,
      "inputs": [
        {
          "components": [
            {
              "internalType": "address payable",
              "name": "recipient",
              "type": "address"
            },
            {
              "internalType": "bytes32",
              "name": "merkleRoot",
              "type": "bytes32"
            },
            {
              "internalType": "uint256",
              "name": "saleMaximum",
              "type": "uint256"
            },
            {
              "internalType": "uint256",
              "name": "userMaximum",
              "type": "uint256"
            },
            {
              "internalType": "uint256",
              "name": "purchaseMinimum",
              "type": "uint256"
            },
            {
              "internalType": "uint256",
              "name": "startTime",
              "type": "uint256"
            },
            {
              "internalType": "uint256",
              "name": "endTime",
              "type": "uint256"
            },
            {
              "internalType": "uint256",
              "name": "maxQueueTime",
              "type": "uint256"
            },
            {
              "internalType": "string",
              "name": "URI",
              "type": "string"
            }
          ],
          "indexed": false,
          "internalType": "struct Config",
          "name": "config",
          "type": "tuple"
        },
        {
          "indexed": false,
          "internalType": "string",
          "name": "baseCurrency",
          "type": "string"
        },
        {
          "indexed": false,
          "internalType": "contract IOracleOrL2OracleWithSequencerCheck",
          "name": "nativeOracle",
          "type": "address"
        },
        {
          "indexed": false,
          "internalType": "bool",
          "name": "nativePaymentsEnabled",
          "type": "bool"
        }
      ],
      "name": "Initialize",
      "type": "event"
    },
    {
      "anonymous": false,
      "inputs": [
        {
          "indexed": false,
          "internalType": "uint8",
          "name": "version",
          "type": "uint8"
        }
      ],
      "name": "Initialized",
      "type": "event"
    },
    {
      "anonymous": false,
      "inputs": [
        {
          "indexed": true,
          "internalType": "address",
          "name": "previousOwner",
          "type": "address"
        },
        {
          "indexed": true,
          "internalType": "address",
          "name": "newOwner",
          "type": "address"
        }
      ],
      "name": "OwnershipTransferred",
      "type": "event"
    },
    {
      "anonymous": false,
      "inputs": [
        {
          "indexed": false,
          "internalType": "address",
          "name": "distributor",
          "type": "address"
        }
      ],
      "name": "RegisterDistributor",
      "type": "event"
    },
    {
      "anonymous": false,
      "inputs": [
        {
          "indexed": false,
          "internalType": "contract IERC20Upgradeable",
          "name": "token",
          "type": "address"
        },
        {
          "components": [
            {
              "internalType": "contract IOracleOrL2OracleWithSequencerCheck",
              "name": "oracle",
              "type": "address"
            },
            {
              "internalType": "uint8",
              "name": "decimals",
              "type": "uint8"
            }
          ],
          "indexed": false,
          "internalType": "struct PaymentTokenInfo",
          "name": "paymentTokenInfo",
          "type": "tuple"
        }
      ],
      "name": "SetPaymentTokenInfo",
      "type": "event"
    },
    {
      "anonymous": false,
      "inputs": [
        {
          "indexed": false,
          "internalType": "uint256",
          "name": "amount",
          "type": "uint256"
        }
      ],
      "name": "SweepNative",
      "type": "event"
    },
    {
      "anonymous": false,
      "inputs": [
        {
          "indexed": true,
          "internalType": "address",
          "name": "token",
          "type": "address"
        },
        {
          "indexed": false,
          "internalType": "uint256",
          "name": "amount",
          "type": "uint256"
        }
      ],
      "name": "SweepToken",
      "type": "event"
    },
    {
      "anonymous": false,
      "inputs": [
        {
          "components": [
            {
              "internalType": "address payable",
              "name": "recipient",
              "type": "address"
            },
            {
              "internalType": "bytes32",
              "name": "merkleRoot",
              "type": "bytes32"
            },
            {
              "internalType": "uint256",
              "name": "saleMaximum",
              "type": "uint256"
            },
            {
              "internalType": "uint256",
              "name": "userMaximum",
              "type": "uint256"
            },
            {
              "internalType": "uint256",
              "name": "purchaseMinimum",
              "type": "uint256"
            },
            {
              "internalType": "uint256",
              "name": "startTime",
              "type": "uint256"
            },
            {
              "internalType": "uint256",
              "name": "endTime",
              "type": "uint256"
            },
            {
              "internalType": "uint256",
              "name": "maxQueueTime",
              "type": "uint256"
            },
            {
              "internalType": "string",
              "name": "URI",
              "type": "string"
            }
          ],
          "indexed": false,
          "internalType": "struct Config",
          "name": "config",
          "type": "tuple"
        }
      ],
      "name": "Update",
      "type": "event"
    },
    {
      "inputs": [],
      "name": "VERSION",
      "outputs": [
        {
          "internalType": "string",
          "name": "",
          "type": "string"
        }
      ],
      "stateMutability": "view",
      "type": "function"
    },
    {
      "inputs": [],
      "name": "baseCurrency",
      "outputs": [
        {
          "internalType": "string",
          "name": "",
          "type": "string"
        }
      ],
      "stateMutability": "view",
      "type": "function"
    },
    {
      "inputs": [
        {
          "internalType": "bytes",
          "name": "data",
          "type": "bytes"
        },
        {
          "internalType": "bytes32[]",
          "name": "proof",
          "type": "bytes32[]"
        },
        {
          "internalType": "address payable",
          "name": "platformFlatRateFeeRecipient",
          "type": "address"
        },
        {
          "internalType": "uint256",
          "name": "platformFlatRateFeeAmount",
          "type": "uint256"
        }
      ],
      "name": "buyWithNative",
      "outputs": [],
      "stateMutability": "payable",
      "type": "function"
    },
    {
      "inputs": [
        {
          "internalType": "contract IERC20Upgradeable",
          "name": "token",
          "type": "address"
        },
        {
          "internalType": "uint256",
          "name": "quantity",
          "type": "uint256"
        },
        {
          "internalType": "bytes",
          "name": "data",
          "type": "bytes"
        },
        {
          "internalType": "bytes32[]",
          "name": "proof",
          "type": "bytes32[]"
        },
        {
          "internalType": "address payable",
          "name": "platformFlatRateFeeRecipient",
          "type": "address"
        },
        {
          "internalType": "uint256",
          "name": "platformFlatRateFeeAmount",
          "type": "uint256"
        }
      ],
      "name": "buyWithToken",
      "outputs": [],
      "stateMutability": "payable",
      "type": "function"
    },
    {
      "inputs": [
        {
          "internalType": "address",
          "name": "user",
          "type": "address"
        }
      ],
      "name": "buyerTotal",
      "outputs": [
        {
          "internalType": "uint256",
          "name": "",
          "type": "uint256"
        }
      ],
      "stateMutability": "view",
      "type": "function"
    },
    {
      "inputs": [],
      "name": "config",
      "outputs": [
        {
          "internalType": "address payable",
          "name": "recipient",
          "type": "address"
        },
        {
          "internalType": "bytes32",
          "name": "merkleRoot",
          "type": "bytes32"
        },
        {
          "internalType": "uint256",
          "name": "saleMaximum",
          "type": "uint256"
        },
        {
          "internalType": "uint256",
          "name": "userMaximum",
          "type": "uint256"
        },
        {
          "internalType": "uint256",
          "name": "purchaseMinimum",
          "type": "uint256"
        },
        {
          "internalType": "uint256",
          "name": "startTime",
          "type": "uint256"
        },
        {
          "internalType": "uint256",
          "name": "endTime",
          "type": "uint256"
        },
        {
          "internalType": "uint256",
          "name": "maxQueueTime",
          "type": "uint256"
        },
        {
          "internalType": "string",
          "name": "URI",
          "type": "string"
        }
      ],
      "stateMutability": "view",
      "type": "function"
    },
    {
      "inputs": [
        {
          "internalType": "bytes32",
          "name": "merkleRoot",
          "type": "bytes32"
        }
      ],
      "name": "generatePseudorandomValue",
      "outputs": [
        {
          "internalType": "uint160",
          "name": "",
          "type": "uint160"
        }
      ],
      "stateMutability": "view",
      "type": "function"
    },
    {
      "inputs": [
        {
          "internalType": "address",
          "name": "buyer",
          "type": "address"
        }
      ],
      "name": "getFairQueueTime",
      "outputs": [
        {
          "internalType": "uint256",
          "name": "",
          "type": "uint256"
        }
      ],
      "stateMutability": "view",
      "type": "function"
    },
    {
      "inputs": [
        {
          "internalType": "contract IOracleOrL2OracleWithSequencerCheck",
          "name": "oracle",
          "type": "address"
        }
      ],
      "name": "getOraclePrice",
      "outputs": [
        {
          "internalType": "uint256",
          "name": "",
          "type": "uint256"
        }
      ],
      "stateMutability": "view",
      "type": "function"
    },
    {
      "inputs": [
        {
          "internalType": "contract IERC20Upgradeable",
          "name": "token",
          "type": "address"
        }
      ],
      "name": "getPaymentToken",
      "outputs": [
        {
          "components": [
            {
              "internalType": "contract IOracleOrL2OracleWithSequencerCheck",
              "name": "oracle",
              "type": "address"
            },
            {
              "internalType": "uint8",
              "name": "decimals",
              "type": "uint8"
            }
          ],
          "internalType": "struct PaymentTokenInfo",
          "name": "",
          "type": "tuple"
        }
      ],
      "stateMutability": "view",
      "type": "function"
    },
    {
      "inputs": [
        {
          "internalType": "address",
          "name": "_owner",
          "type": "address"
        },
        {
          "components": [
            {
              "internalType": "address payable",
              "name": "recipient",
              "type": "address"
            },
            {
              "internalType": "bytes32",
              "name": "merkleRoot",
              "type": "bytes32"
            },
            {
              "internalType": "uint256",
              "name": "saleMaximum",
              "type": "uint256"
            },
            {
              "internalType": "uint256",
              "name": "userMaximum",
              "type": "uint256"
            },
            {
              "internalType": "uint256",
              "name": "purchaseMinimum",
              "type": "uint256"
            },
            {
              "internalType": "uint256",
              "name": "startTime",
              "type": "uint256"
            },
            {
              "internalType": "uint256",
              "name": "endTime",
              "type": "uint256"
            },
            {
              "internalType": "uint256",
              "name": "maxQueueTime",
              "type": "uint256"
            },
            {
              "internalType": "string",
              "name": "URI",
              "type": "string"
            }
          ],
          "internalType": "struct Config",
          "name": "_config",
          "type": "tuple"
        },
        {
          "internalType": "string",
          "name": "_baseCurrency",
          "type": "string"
        },
        {
          "internalType": "bool",
          "name": "_nativePaymentsEnabled",
          "type": "bool"
        },
        {
          "internalType": "contract IOracleOrL2OracleWithSequencerCheck",
          "name": "_nativeTokenPriceOracle",
          "type": "address"
        },
        {
          "internalType": "contract IERC20Upgradeable[]",
          "name": "tokens",
          "type": "address[]"
        },
        {
          "internalType": "contract IOracleOrL2OracleWithSequencerCheck[]",
          "name": "oracles",
          "type": "address[]"
        },
        {
          "internalType": "uint8[]",
          "name": "decimals",
          "type": "uint8[]"
        }
      ],
      "name": "initialize",
      "outputs": [],
      "stateMutability": "nonpayable",
      "type": "function"
    },
    {
      "inputs": [],
      "name": "isOpen",
      "outputs": [
        {
          "internalType": "bool",
          "name": "",
          "type": "bool"
        }
      ],
      "stateMutability": "view",
      "type": "function"
    },
    {
      "inputs": [],
      "name": "isOver",
      "outputs": [
        {
          "internalType": "bool",
          "name": "",
          "type": "bool"
        }
      ],
      "stateMutability": "view",
      "type": "function"
    },
    {
      "inputs": [
        {
          "internalType": "bytes32",
          "name": "root",
          "type": "bytes32"
        },
        {
          "internalType": "address",
          "name": "account",
          "type": "address"
        },
        {
          "internalType": "bytes",
          "name": "data",
          "type": "bytes"
        },
        {
          "internalType": "bytes32[]",
          "name": "proof",
          "type": "bytes32[]"
        }
      ],
      "name": "isValidMerkleProof",
      "outputs": [
        {
          "internalType": "bool",
          "name": "",
          "type": "bool"
        }
      ],
      "stateMutability": "pure",
      "type": "function"
    },
    {
      "inputs": [],
      "name": "metrics",
      "outputs": [
        {
          "internalType": "uint256",
          "name": "purchaseCount",
          "type": "uint256"
        },
        {
          "internalType": "uint256",
          "name": "buyerCount",
          "type": "uint256"
        },
        {
          "internalType": "uint256",
          "name": "purchaseTotal",
          "type": "uint256"
        }
      ],
      "stateMutability": "view",
      "type": "function"
    },
    {
      "inputs": [],
      "name": "nativeTokenPriceOracle",
      "outputs": [
        {
          "internalType": "contract IOracleOrL2OracleWithSequencerCheck",
          "name": "",
          "type": "address"
        }
      ],
      "stateMutability": "view",
      "type": "function"
    },
    {
      "inputs": [],
      "name": "networkConfig",
      "outputs": [
        {
          "internalType": "contract INetworkConfig",
          "name": "",
          "type": "address"
        }
      ],
      "stateMutability": "view",
      "type": "function"
    },
    {
      "inputs": [],
      "name": "owner",
      "outputs": [
        {
          "internalType": "address",
          "name": "",
          "type": "address"
        }
      ],
      "stateMutability": "view",
      "type": "function"
    },
    {
      "inputs": [
        {
          "internalType": "contract IERC20Upgradeable",
          "name": "",
          "type": "address"
        }
      ],
      "name": "paymentTokens",
      "outputs": [
        {
          "internalType": "contract IOracleOrL2OracleWithSequencerCheck",
          "name": "oracle",
          "type": "address"
        },
        {
          "internalType": "uint8",
          "name": "decimals",
          "type": "uint8"
        }
      ],
      "stateMutability": "view",
      "type": "function"
    },
    {
      "inputs": [
        {
          "internalType": "address",
          "name": "dest",
          "type": "address"
        }
      ],
      "name": "payments",
      "outputs": [
        {
          "internalType": "uint256",
          "name": "",
          "type": "uint256"
        }
      ],
      "stateMutability": "view",
      "type": "function"
    },
    {
      "inputs": [
        {
          "internalType": "address",
          "name": "_distributor",
          "type": "address"
        }
      ],
      "name": "registerDistributor",
      "outputs": [],
      "stateMutability": "nonpayable",
      "type": "function"
    },
    {
      "inputs": [],
      "name": "renounceOwnership",
      "outputs": [],
      "stateMutability": "nonpayable",
      "type": "function"
    },
    {
      "inputs": [],
      "name": "sweepNative",
      "outputs": [],
      "stateMutability": "nonpayable",
      "type": "function"
    },
    {
      "inputs": [
        {
          "internalType": "contract IERC20Upgradeable",
          "name": "token",
          "type": "address"
        }
      ],
      "name": "sweepToken",
      "outputs": [],
      "stateMutability": "nonpayable",
      "type": "function"
    },
    {
      "inputs": [
        {
          "internalType": "uint256",
          "name": "tokenQuantity",
          "type": "uint256"
        },
        {
          "internalType": "uint256",
          "name": "tokenDecimals",
          "type": "uint256"
        },
        {
          "internalType": "contract IOracleOrL2OracleWithSequencerCheck",
          "name": "oracle",
          "type": "address"
        }
      ],
      "name": "tokensToBaseCurrency",
      "outputs": [
        {
          "internalType": "uint256",
          "name": "value",
          "type": "uint256"
        }
      ],
      "stateMutability": "view",
      "type": "function"
    },
    {
      "inputs": [],
      "name": "total",
      "outputs": [
        {
          "internalType": "uint256",
          "name": "",
          "type": "uint256"
        }
      ],
      "stateMutability": "view",
      "type": "function"
    },
    {
      "inputs": [
        {
          "internalType": "address",
          "name": "newOwner",
          "type": "address"
        }
      ],
      "name": "transferOwnership",
      "outputs": [],
      "stateMutability": "nonpayable",
      "type": "function"
    },
    {
      "inputs": [
        {
          "components": [
            {
              "internalType": "address payable",
              "name": "recipient",
              "type": "address"
            },
            {
              "internalType": "bytes32",
              "name": "merkleRoot",
              "type": "bytes32"
            },
            {
              "internalType": "uint256",
              "name": "saleMaximum",
              "type": "uint256"
            },
            {
              "internalType": "uint256",
              "name": "userMaximum",
              "type": "uint256"
            },
            {
              "internalType": "uint256",
              "name": "purchaseMinimum",
              "type": "uint256"
            },
            {
              "internalType": "uint256",
              "name": "startTime",
              "type": "uint256"
            },
            {
              "internalType": "uint256",
              "name": "endTime",
              "type": "uint256"
            },
            {
              "internalType": "uint256",
              "name": "maxQueueTime",
              "type": "uint256"
            },
            {
              "internalType": "string",
              "name": "URI",
              "type": "string"
            }
          ],
          "internalType": "struct Config",
          "name": "_config",
          "type": "tuple"
        }
      ],
      "name": "update",
      "outputs": [],
      "stateMutability": "nonpayable",
      "type": "function"
    },
    {
      "inputs": [
        {
          "internalType": "address payable",
          "name": "payee",
          "type": "address"
        }
      ],
      "name": "withdrawPayments",
      "outputs": [],
      "stateMutability": "nonpayable",
      "type": "function"
    }
  ],
  "bytecode": "0x60a0346200015957601f62003e7638819003918201601f19168301916001600160401b038311848410176200015e578084926020946040528339810103126200015957516001600160a01b03811690819003620001595760005460ff8160081c1662000104577f729563fd224b9a644af3cb647d3cb666ff093c97c2e7f1c6cefe51ee5bea587e918160ff806020941603620000c9575b5080608052604051908152a1604051613d01908162000175823960805181818161059d01528181611c0c0152611f750152f35b60ff90811916176000557f7f26b83ff96e1f2b6a682f133852f6798a09c465da95921460cefb38474024988260405160ff8152a13862000096565b60405162461bcd60e51b815260206004820152602760248201527f496e697469616c697a61626c653a20636f6e747261637420697320696e697469604482015266616c697a696e6760c81b6064820152608490fd5b600080fd5b634e487b7160e01b600052604160045260246000fdfe6080604052600436101561001257600080fd5b6000803560e01c806301c3753f146121af57806306084ba114611e8157806314d186a714611a405780631be195601461192b5780632ddbd13a1461190d57806331ab05181461185557806331b3eb94146117ed57806347535d7b146117a75780634cc233a81461176e578063621aa9251461173d578063669ad09214610b51578063715018a614610af357806375f620ac14610ad457806379502c55146109bb578063826b90f2146106695780638da5cb5b146106405780638dbc8343146105cc57806390ced4211461058757806392a85fde146104b7578063a04748f614610485578063a9e0c9c314610461578063ab803a76146103c9578063b4bd9e2714610390578063c3b88b4214610348578063e2982c21146102ab578063e49248d514610260578063e6064de314610237578063f2fde38b146101a65763ffa1ad741461015c57600080fd5b346101a357806003193601126101a35761019f60405161017b816123a0565b60038152620332e360ec1b6020820152604051918291602083526020830190612405565b0390f35b80fd5b50346101a35760203660031901126101a3576101c061222b565b6101c8612445565b6001600160a01b038116156101e3576101e09061249d565b80f35b60405162461bcd60e51b815260206004820152602660248201527f4f776e61626c653a206e6577206f776e657220697320746865207a65726f206160448201526564647265737360d01b6064820152608490fd5b50346101a357806003193601126101a35760cc546040516001600160a01b039091168152602090f35b50346101a35760603660031901126101a35760206102a361029261028a61028561229e565b6129f2565b600435612c26565b61029d602435612c39565b90612c47565b604051908152f35b50346101a357602090816003193601126101a3576102c761222b565b6097546040516371d4ed8d60e11b81526001600160a01b03928316600482015291849183916024918391165afa91821561033c579161030a575b50604051908152f35b90508181813d8311610335575b61032181836123e4565b81010312610330575138610301565b600080fd5b503d610317565b604051903d90823e3d90fd5b50346101a35760203660031901126101a3576040906001600160a01b039060ff9083908361037461222b565b16815260cd60205220548351928116835260a01c166020820152f35b50346101a357806003193601126101a35760d45442108015906103bb575b6020906040519015158152f35b5060d95460d05411156103ae565b50346101a357806003193601126101a35747818080808460018060a01b0360ce54165af16103f5612f89565b50156104295760207f3b381fdfc0e2729a70e8b26ae2397e9014f703a8235b557f5581c4ed47280fd291604051908152a180f35b60405162461bcd60e51b815260206004820152601060248201526f2a3930b739b332b9103330b4b632b21760811b6044820152606490fd5b50346101a35760203660031901126101a35760206102a361048061222b565b612bb6565b50346101a357806003193601126101a35760d75460d85460d95460408051938452602084019290925290820152606090f35b50346101a357806003193601126101a35760405160cb546000826104da836122ca565b9182825260209360019085828216918260001461056757505060011461051c575b50610508925003836123e4565b61019f604051928284938452830190612405565b84915060cb600052600080516020613c8c833981519152906000915b85831061054f5750506105089350820101856104fb565b80548389018501528794508693909201918101610538565b60ff19168582015261050895151560051b85010192508791506104fb9050565b50346101a357806003193601126101a3576040517f00000000000000000000000000000000000000000000000000000000000000006001600160a01b03168152602090f35b50346101a35760203660031901126101a35760409060ff826105ec61222b565b9280602083516105fb816123a0565b828152015260018060a01b03809416815260cd6020522091816020855194610622866123a0565b5492831694858152019160a01c168152835192835251166020820152f35b50346101a357806003193601126101a3576065546040516001600160a01b039091168152602090f35b50346101a35760031990602036830181136109b7576004356001600160401b038082116109b357816004019461012083360391820112610977576106ab6124e6565b60db546001600160a01b03949190851661097f575b5060a481013563f48657006106d78183111561260c565b6106e860c484013591821115612658565b60e4830135916106fd62093a808411156126a4565b6107128761070a8c6126ef565b161515612703565b6044840135996107238b151561274f565b606485013561073381151561278e565b61073f8c8211156127cd565b61079561077860848801359361075784861115612819565b61076b876107658a89612865565b10612888565b610773612445565b6126ef565b60018060a01b03166001600160601b0360a01b60ce54161760ce55565b60249b8c87013560cf5560d05560d15560d25560d35560d45560d555610104810135916022190182121561097b570160048101359182116109775781360386820113610977576107e660d6546122ca565b601f8111610927575b508490601f83116001146108895791859681926108769695947ff19e3240beb82d0dfa0a35ed50201f0ac38ea92b9b29450527293aa8ccd0979b989361087c575b5050508160011b916000199060031b1c19161760d6555b61085260cf54612b97565b166001600160601b0360a01b60db54161760db5560405191818392835282016128e8565b0390a180f35b0101359050388080610830565b60d6865295600080516020613cac83398151915291601f198416875b81811061090e5750978492600194926108769897967ff19e3240beb82d0dfa0a35ed50201f0ac38ea92b9b29450527293aa8ccd0979b9a9b106108f2575b50505050811b0160d655610847565b60001960f88660031b161c1992010135169055388080806108e3565b9193876001819286888e010135815501950192016108a5565b60d68652600080516020613cac833981519152601f840160051c81019186851061096d575b601f0160051c01905b81811061096257506107ef565b868155600101610955565b909150819061094c565b8480fd5b8580fd5b61098e60c08201514210612568565b60a08101514211156106c05760406109ad9101516044830135146125b4565b386106c0565b8380fd5b5080fd5b50346101a357806003193601126101a35760018060a01b0360ce541660cf5460d05460d1549260d2549060d35460d45460d554916040519460009860d65497610a03896122ca565b808952602099600190818116908115610ab65750600114610a6e575b5050610a328861019f9a9b9c03896123e4565b6040519a8b9a610120988c528b015260408a01526060890152608088015260a087015260c086015260e085015280610100850152830190612405565b819c5060d6600052600080516020613cac83398151915260009d8e5b10610aa157505050998701880199610a3288610a1f565b80548b8f018d01529c8b019c8101828e610a8a565b60ff19168b8d01525050151560051b880189019a50610a3288610a1f565b50346101a35760203660031901126101a35760206102a361028561222b565b50346101a357806003193601126101a357610b0c612445565b606580546001600160a01b031981169091556000906001600160a01b03167f8be0079c531659141344cd1fd0a4f28419497f9722a3daafe3b4186f6b6457e08280a380f35b50346101a357600319610100368201126109b757610b6d61222b565b906001600160401b03602435116116455761012090602435360301126109b7576044356001600160401b03811161164557610bac903690600401612241565b606492919235801515810361097757610bc36122b4565b9160a4356001600160401b03811161173957610be390369060040161226e565b9260c4356001600160401b03811161173557610c0390369060040161226e565b90916001600160401b0360e4351161173157610c243660e43560040161226e565b9790958b549a60ff8c60081c16159b8c809d611724575b801561170d575b156116b15760ff8e610d53928f6001841983161783556116a0575b50610c666124e6565b60db546001600160a01b031661166a575b50610ca063f4865700610c928160a46024350135111561260c565b60c460243501351115612658565b610cb562093a8060e4602435013511156126a4565b610cce6001600160a01b0361070a6004602435016126ef565b610cdf60446024350135151561274f565b610cf060646024350135151561278e565b610d08604460243501356064602435013511156127cd565b610d2060646024350135608460243501351115612819565b610d4060c4602435013561076560e4602435013560a46024350135612865565b5460081c16610d4e8161297b565b61297b565b604051806106708101106001600160401b0361067083011117611656578d9061067061361c8239806106708101039082f0801561164957609780546001600160a01b0383166001600160a01b0319821681179092559190838316173b156116455760405163204a7f0760e21b81529183918391600491839185916001600160a01b0316908216175af1801561163a57611626575b50508489036115e15789890361159c576001600160a01b0383161561156257610e176107786024356004016126ef565b602480359081013560cf55604481013560d055606481013560d155608481013560d25560a481013560d35560c481013560d45560e481013560d555368190036022190161010490910135121561155e576001600160401b0360243561010481013501600401351161155e5760248035610104810135016004810135360391011361155e57610ea660d6546122ca565b8d601f82116114e4575b90508d6001601f6024356101048101350160040135111461142b57906024356101048101350160040135611414575b506000196024356101048101350160040135600381901b9190911c1990911660019190911b1760d6555b6001600160401b038211611400578c8291610f2560cb546122ca565b601f811161138b575b5081601f8411600114611319579261130e575b50508160011b916000199060031b1c19161760cb555b60cc80546001600160a81b0319166001600160a01b0383161783151560a01b60ff60a01b1617905560405160808082529092908c90610f979085016128e8565b928484036020860152819360cb5490610faf826122ca565b80825291600181169081156112ca5750600114611250575b5050918493917fb08510a4a112663ff701fcf43686a47fd456cb1a471dd63d662b73612cf700b3959360018060a01b03169082151560a01b16176040840152151560608301520390a1885b85811061108857898961104a8a60018060a01b0361103160cf54612b97565b166001600160601b0360a01b60db54161760db5561249d565b6110515780f35b61ff001981541681557f7f26b83ff96e1f2b6a682f133852f6798a09c465da95921460cefb3847402498602060405160018152a180f35b6001600160a01b0361109e610773838988612955565b1615611216576001600160a01b036110ba610773838587612955565b16156111dd57806110d06107738c938587612955565b6110db828a89612955565b359060ff821682036109b3578860ff60406111d8967f1573dfedb5172e215558f8ffa409a71a5e42c596c15c482a04ff548914ebfa7795606095835190611121826123a0565b60018060a01b031681528460208201921682528c61114a6107738b8960018060a01b0394612955565b16835260cd60208190528484209151825493516001600160a81b03199094166001600160a01b03919091161792861660a01b9290921790558b6111a56107738a61119682828b87612955565b986001600160a01b0394612955565b168252602052206040519260018060a01b031683525460018060a01b038116602084015260a01c166040820152a1612946565b611012565b60405162461bcd60e51b81526020600482015260116024820152700746f6b656e206f7261636c65203d3d203607c1b6044820152606490fd5b60405162461bcd60e51b815260206004820152601260248201527107061796d656e7420746f6b656e203d3d20360741b6044820152606490fd5b95945060cb8392949352600080516020613c8c8339815191529082915b8183106112a6575094950160200193509091817fb08510a4a112663ff701fcf43686a47fd456cb1a471dd63d662b73612cf700b3610fc7565b602091949596979350806001915483858701015201910190928f929695949361126d565b60ff191660208381019190915292151560051b90910190910194508290507fb08510a4a112663ff701fcf43686a47fd456cb1a471dd63d662b73612cf700b3610fc7565b013590503880610f41565b60cb81529350600080516020613c8c833981519152915b601f1984168510611373576001945083601f19811610611359575b505050811b0160cb55610f57565b0135600019600384901b60f8161c1916905538808061134b565b81810135835560209485019460019093019201611330565b9160cb91935052601f830160051c600080516020613c8c83398151915201602084106113eb575b918e9184935b601f820160051c600080516020613c8c8339815191520181106113db5750610f2e565b9283558493508f926001016113b8565b50600080516020613c8c8339815191526113b2565b634e487b7160e01b8d52604160045260248dfd5b602491506101048235013582350101013538610edf565b9060d68252600080516020613cac833981519152915b6024356101048101350160040135601f191681106114c157506024356101048101350160040135601f19811610611492575b5050600160046101046024350135602435010135811b0160d655610f09565b602480356101048101350191820101356000196004929092013560031b60f8169190911c191690553880611473565b602480356101048101350183010135835560019092019160209182019101611441565b60d69052601f60046101046024359081013501013590810160051c600080516020613cac8339815191520190602011611549575b8e5b601f830160051c600080516020613cac83398151915201821061153e579050610eb0565b81556001018e61151a565b50600080516020613cac833981519152611518565b8c80fd5b60405162461bcd60e51b815260206004820152601260248201527106e6174697665206f7261636c65203d3d20360741b6044820152606490fd5b60405162461bcd60e51b815260206004820152601d60248201527f746f6b656e20616e6420646563696d616c73206c656e6774687320213d0000006044820152606490fd5b60405162461bcd60e51b815260206004820152601b60248201527f746f6b656e20616e64206f7261636c65206c656e6774687320213d00000000006044820152606490fd5b61162f906123d1565b61155e578c38610de7565b6040513d84823e3d90fd5b8280fd5b50604051903d90823e3d90fd5b634e487b7160e01b8e52604160045260248efd5b61167960c08201514210612568565b60a0810151421115610c7757604061169a91015160446024350135146125b4565b38610c77565b61ffff191661010117815538610c5d565b60405162461bcd60e51b815260206004820152602e60248201527f496e697469616c697a61626c653a20636f6e747261637420697320616c72656160448201526d191e481a5b9a5d1a585b1a5e995960921b6064820152608490fd5b50303b158015610c425750600160ff821614610c42565b50600160ff821610610c3b565b8980fd5b8880fd5b8680fd5b50346101a35760203660031901126101a357602061175c600435612b97565b6040516001600160a01b039091168152f35b50346101a35760203660031901126101a3576020906040906001600160a01b0361179661222b565b16815260da83522054604051908152f35b50346101a357806003193601126101a35760d3544211806117e2575b806117d5576020906040519015158152f35b5060d95460d054116103ae565b504260d454116117c3565b50346101a35760203660031901126101a35761180761222b565b6097546001600160a01b0390811691839190833b15611645576024908360405195869485936351cff8d960e01b85521660048401525af1801561163a5761184c575080f35b6101e0906123d1565b50346101a35760203660031901126101a35761186f61222b565b611877612445565b6001600160a01b031680156118c8576020817fbfbef9c12fc2cf7df9f0b7679d5863e31a093e9c2c8d5dd9de1ddca31a074828926001600160601b0360a01b60ca54161760ca55604051908152a180f35b60405162461bcd60e51b815260206004820152601960248201527f4469737472696275746f72203d3d2061646472657373283029000000000000006044820152606490fd5b50346101a357806003193601126101a357602060d954604051908152f35b50346101a3576020806003193601126109b75761194661222b565b6040516370a0823160e01b81523060048201526001600160a01b038083169392908383602481885afa928315611a35578693611a06575b5060ce5460405163a9059cbb60e01b86820152911660248201526044808201849052815290608082016001600160401b038111838210176119f2576040527ff4a44a7f605c4971a27bcecb448108e6328b7fad34fab5bff4f69377294b826d9392916119e891613330565b604051908152a280f35b634e487b7160e01b87526041600452602487fd5b9092508381813d8311611a2e575b611a1e81836123e4565b8101031261097b5751913861197d565b503d611a14565b6040513d88823e3d90fd5b5060c03660031901126101a357611a5561222b565b602435906001600160401b039060443582811161097757611a7a903690600401612241565b9260643590811161097b57611a9390369060040161226e565b949084611a9e6122b4565b968460a43593611aaf323314612c51565b60cf549081611dfc5750505050611ac69015612d64565b611b0b611afc60d354611ada814211612dba565b611ae760d4544210612e06565b611af660d95460d05411612e43565b42612b8a565b611b0533612bb6565b10612e88565b60018060a01b03938481169687895260209260cd845260408a2060405190611b32826123a0565b54908560ff8a84169384845260a01c1691015215611dbf57611bb191611ba5611b9e611bab93611b60612f33565b61029d611b988c60cc541692611b9381670de0b6b3a7640000611b8b611b85886129f2565b34612c26565b041015612ec8565b612c09565b916129f2565b8092612fc8565b34612b8a565b33612fc8565b86885260cd8252611bfb8261029d611bf5611bef60408d2060405190611bd6826123a0565b549060ff8c83169283835260a01c1695869101526129f2565b87612c26565b91612c39565b604051630e9ed68b60e01b815290967f00000000000000000000000000000000000000000000000000000000000000008716959084836004818a5afa928315611d9757889386918d91611da2575b5060246040518096819363b31c878160e01b8352336004840152165afa908115611d975785938c92611d61575b506004939261271092611c95928115611d58575b611bef91928d6130a3565b0495604051928380926301332c8360e61b82525afa928315611d4d577ef93dbdb72854b6b6fb35433086556f2635fc83c37080c667496fecfa650fb496611d0194611ced9388938d92611d20575b50501633846132d6565b611cf78484612b8a565b90309033906132d6565b6040805194855260208501919091528301523391606090a36001805580f35b611d3f9250803d10611d46575b611d3781836123e4565b810190612f14565b3880611ce3565b503d611d2d565b6040513d8b823e3d90fd5b60649150611c8a565b8481959293503d8311611d90575b611d7981836123e4565b81010312611d8c57915184926004611c76565b8a80fd5b503d611d6f565b6040513d8d823e3d90fd5b611db99150823d8411611d4657611d3781836123e4565b38611c49565b60405162461bcd60e51b815260048101859052601560248201527434b73b30b634b2103830bcb6b2b73a103a37b5b2b760591b6044820152606490fd5b602093611e209160405196879586956301c3753f60e01b8752339060048801612cac565b0381305afa908115611e7657611e43916001918a91611e48575b50151514612d18565b611ac6565b611e69915060203d8111611e6f575b611e6181836123e4565b810190612c94565b38611e3a565b503d611e57565b6040513d8a823e3d90fd5b5060803660031901126101a3576001600160401b0360043581811161164557611eae903690600401612241565b90916024359081116109b357611ec890369060040161226e565b919081611ed361229e565b938560643593611ee4323314612c51565b60cf5490816121645750505050611efb9015612d64565b611f0f611afc60d354611ada814211612dba565b60ff60cc5460a01c161561211f578493611f27612f33565b60cc546001600160a01b0393908416611f72611f6b670de0b6b3a7640000611f51611b85856129f2565b0492611f5f87851015612ec8565b61029d611b9888612c09565b8097612fc8565b847f0000000000000000000000000000000000000000000000000000000000000000169360405191630e9ed68b60e01b835260209384846004818a5afa9384156120f757889486918c91612102575b506024604051809b819363b31c878160e01b8352336004840152165afa9586156120f7578a966120c7575b6004985086156120be575b61201f848461201a61202d95612026956120158c9a6127109a612b8a565b6130a3565b612b8a565b9934612b8a565b9586612c26565b0494604051968780926301332c8360e61b82525afa80156120b3578482612082927ef93dbdb72854b6b6fb35433086556f2635fc83c37080c667496fecfa650fb498611d01968c92612096575b5050166134b3565b60ce54166120908484612b8a565b906134b3565b6120ac9250803d10611d4657611d3781836123e4565b388061207a565b6040513d89823e3d90fd5b60649650611ff7565b95508488813d83116120f0575b6120de81836123e4565b81010312611731576004975195611fec565b503d6120d4565b6040513d8c823e3d90fd5b6121199150823d8411611d4657611d3781836123e4565b38611fc1565b60405162461bcd60e51b815260206004820152601860248201527f6e6174697665207061796d656e74732064697361626c656400000000000000006044820152606490fd5b6020936121889160405196879586956301c3753f60e01b8752339060048801612cac565b0381305afa908115611a35576121aa916001918891611e485750151514612d18565b611efb565b50346101a35760803660031901126101a3576024356001600160a01b03811681036109b7576001600160401b036044358181116109b3576121f4903690600401612241565b9190936064359182116101a3576020612221868686612216366004890161226e565b93909260043561350b565b6040519015158152f35b600435906001600160a01b038216820361033057565b9181601f84011215610330578235916001600160401b038311610330576020838186019501011161033057565b9181601f84011215610330578235916001600160401b038311610330576020808501948460051b01011161033057565b604435906001600160a01b038216820361033057565b608435906001600160a01b038216820361033057565b90600182811c921680156122fa575b60208310146122e457565b634e487b7160e01b600052602260045260246000fd5b91607f16916122d9565b60d65460009291612314826122ca565b9081815260209260019081811690816000146123835750600114612339575b50505050565b929394509060d6600052600080516020613cac83398151915292846000945b83861061236f575050505001019038808080612333565b805485870183015294019385908201612358565b60ff191685840152505090151560051b0101915038808080612333565b604081019081106001600160401b038211176123bb57604052565b634e487b7160e01b600052604160045260246000fd5b6001600160401b0381116123bb57604052565b90601f801991011681019081106001600160401b038211176123bb57604052565b919082519283825260005b848110612431575050826000602080949584010152601f8019910116010190565b602081830181015184830182015201612410565b6065546001600160a01b0316330361245957565b606460405162461bcd60e51b815260206004820152602060248201527f4f776e61626c653a2063616c6c6572206973206e6f7420746865206f776e65726044820152fd5b606580546001600160a01b039283166001600160a01b0319821681179092559091167f8be0079c531659141344cd1fd0a4f28419497f9722a3daafe3b4186f6b6457e0600080a3565b6040519061012082018281106001600160401b038211176123bb57604090815260ce546001600160a01b0316835260cf54602084015260d0548382015260d154606084015260d254608084015260d35460a084015260d45460c084015260d55460e084015251610100836125648361255d81612304565b03846123e4565b0152565b1561256f57565b60405162461bcd60e51b815260206004820152601a60248201527f73616c65206973206f7665723a2063616e6e6f742075706174650000000000006044820152606490fd5b156125bb57565b60405162461bcd60e51b8152602060048201526024808201527f65646974696e672073616c654d6178696d756d2061667465722073616c6520736044820152631d185c9d60e21b6064820152608490fd5b1561261357565b60405162461bcd60e51b815260206004820152601f60248201527f7374617274203e203431303234343438303020284a616e2031203231303029006044820152606490fd5b1561265f57565b60405162461bcd60e51b815260206004820152601d60248201527f656e64203e203431303234343438303020284a616e20312032313030290000006044820152606490fd5b156126ab57565b606460405162461bcd60e51b815260206004820152602060248201527f6d61782071756575652074696d65203e20363034383030202831207765656b296044820152fd5b356001600160a01b03811681036103305790565b1561270a57565b60405162461bcd60e51b815260206004820152601760248201527f726563697069656e74203d3d20616464726573732830290000000000000000006044820152606490fd5b1561275657565b60405162461bcd60e51b815260206004820152601060248201526f073616c654d6178696d756d203d3d20360841b6044820152606490fd5b1561279557565b60405162461bcd60e51b815260206004820152601060248201526f0757365724d6178696d756d203d3d20360841b6044820152606490fd5b156127d457565b60405162461bcd60e51b815260206004820152601960248201527f757365724d6178696d756d203e2073616c654d6178696d756d000000000000006044820152606490fd5b1561282057565b60405162461bcd60e51b815260206004820152601d60248201527f70757263686173654d696e696d756d203e20757365724d6178696d756d0000006044820152606490fd5b9190820180921161287257565b634e487b7160e01b600052601160045260246000fd5b1561288f57565b60405162461bcd60e51b815260206004820152602b60248201527f73616c65206d757374206265206f70656e20666f72206174206c65617374206d60448201526a6178517565756554696d6560a81b6064820152608490fd5b60ce546001600160a01b0316815260cf54602082015260d054604082015260d154606082015260d254608082015260d35460a082015260d45460c082015260d55460e082015261012061010082018190526129439101612304565b90565b60001981146128725760010190565b91908110156129655760051b0190565b634e487b7160e01b600052603260045260246000fd5b1561298257565b60405162461bcd60e51b815260206004820152602b60248201527f496e697469616c697a61626c653a20636f6e7472616374206973206e6f74206960448201526a6e697469616c697a696e6760a81b6064820152608490fd5b519069ffffffffffffffffffff8216820361033057565b60408051633fabe5a360e21b81529160a090839060049082906001600160a01b03165afa918215612b7f576000928380928192612b29575b506000851315612af45769ffffffffffffffffffff809216928315612ac25715612a89571611612a58575090565b5162461bcd60e51b815260206004820152600b60248201526a7374616c6520707269636560a81b6044820152606490fd5b835162461bcd60e51b8152602060048201526012602482015271726f756e64206e6f7420636f6d706c65746560701b6044820152606490fd5b845162461bcd60e51b815260206004820152600b60248201526a0616e73776572203d3d20360ac1b6044820152606490fd5b835162461bcd60e51b815260206004820152600e60248201526d6e6567617469766520707269636560901b6044820152606490fd5b945091505060a0833d8211612b77575b81612b4660a093836123e4565b810103126101a35750612b58826129db565b6020830151612b6e6080606086015195016129db565b90939138612a2a565b3d9150612b39565b50513d6000823e3d90fd5b9190820391821161287257565b600019430190438211612872576001600160a01b039081169140161890565b60d5548015612c025760db546001600160a01b03928316908316189082168015612bec5782048216908115612bec578216041690565b634e487b7160e01b600052601260045260246000fd5b5050600090565b90670de0b6b3a76400009182810292818404149015171561287257565b8181029291811591840414171561287257565b604d811161287257600a0a90565b8115612bec570490565b15612c5857565b60405162461bcd60e51b81526020600482015260146024820152734d75737420627579207769746820616e20454f4160601b6044820152606490fd5b90816020910312610330575180151581036103305790565b9081526001600160a01b03909116602082015260806040820181905281018390529190819060a0840137600060a08284010152601f8019910116810190606060a0828403019101528260a082015260018060fb1b0383116103305760c09260051b809284830137010190565b15612d1f57565b60405162461bcd60e51b815260206004820152601960248201527f626164206d65726b6c652070726f6f6620666f722073616c65000000000000006044820152606490fd5b15612d6b57565b60405162461bcd60e51b815260206004820152602160248201527f64617461206e6f74207065726d6974746564206f6e207075626c69632073616c6044820152606560f81b6064820152608490fd5b15612dc157565b60405162461bcd60e51b815260206004820152601860248201527f73616c6520686173206e6f7420737461727465642079657400000000000000006044820152606490fd5b15612e0d57565b60405162461bcd60e51b815260206004820152600e60248201526d1cd85b19481a185cc8195b99195960921b6044820152606490fd5b15612e4a57565b60405162461bcd60e51b81526020600482015260166024820152751cd85b1948189d5e481b1a5b5a5d081c995858da195960521b6044820152606490fd5b15612e8f57565b60405162461bcd60e51b81526020600482015260116024820152701b9bdd081e5bdd5c881d1d5c9b881e595d607a1b6044820152606490fd5b15612ecf57565b60405162461bcd60e51b815260206004820152601960248201527f666565207061796d656e742062656c6f77206d696e696d756d000000000000006044820152606490fd5b9081602091031261033057516001600160a01b03811681036103305790565b600260015414612f44576002600155565b60405162461bcd60e51b815260206004820152601f60248201527f5265656e7472616e637947756172643a207265656e7472616e742063616c6c006044820152606490fd5b3d15612fc3573d906001600160401b0382116123bb5760405191612fb7601f8201601f1916602001846123e4565b82523d6000602084013e565b606090565b81471061305e576000918291829182916001600160a01b03165af1612feb612f89565b5015612ff357565b60405162461bcd60e51b815260206004820152603a60248201527f416464726573733a20756e61626c6520746f2073656e642076616c75652c207260448201527f6563697069656e74206d617920686176652072657665727465640000000000006064820152608490fd5b60405162461bcd60e51b815260206004820152601d60248201527f416464726573733a20696e73756666696369656e742062616c616e63650000006044820152606490fd5b919060d154918061322c575b50506000338152602060da81526040926130cc8484205486612865565b116131e95760d9546130de8186612865565b60d054106131a55760d25485106131685760d754600181018091116131545790859160d75533845260da8352848420541561313a575b9161312660da92613136969594612865565b60d9553383525220918254612865565b9055565b905060d854600181018091116131545760d8558490613114565b634e487b7160e01b84526011600452602484fd5b835162461bcd60e51b8152600481018390526016602482015275707572636861736520756e646572206d696e696d756d60501b6044820152606490fd5b835162461bcd60e51b815260048101839052601b60248201527f707572636861736520657863656564732073616c65206c696d697400000000006044820152606490fd5b60649083519062461bcd60e51b82526004820152601b60248201527f7075726368617365206578636565647320796f7572206c696d697400000000006044820152fd5b80919250600111610330576001823560f81c036132a2576021810361325d57602111610330576001013538806130af565b60405162461bcd60e51b815260206004820152601760248201527f64617461206c656e67746820213d2033332062797465730000000000000000006044820152606490fd5b60405162461bcd60e51b815260206004820152600c60248201526b756e6b6e6f776e206461746160a01b6044820152606490fd5b6040516323b872dd60e01b60208201526001600160a01b03928316602482015292909116604483015260648083019390935291815260a08101918183106001600160401b038411176123bb5761332e92604052613330565b565b60405161338e916001600160a01b0316613349826123a0565b6000806020958685527f5361666545524332303a206c6f772d6c6576656c2063616c6c206661696c656487860152868151910182855af1613388612f89565b91613416565b8051908282159283156133fe575b505050156133a75750565b6084906040519062461bcd60e51b82526004820152602a60248201527f5361666545524332303a204552433230206f7065726174696f6e20646964206e6044820152691bdd081cdd58d8d9595960b21b6064820152fd5b61340e9350820181019101612c94565b38828161339c565b91929015613478575081511561342a575090565b3b156134335790565b60405162461bcd60e51b815260206004820152601d60248201527f416464726573733a2063616c6c20746f206e6f6e2d636f6e74726163740000006044820152606490fd5b82519091501561348b5750805190602001fd5b60405162461bcd60e51b8152602060048201529081906134af906024830190612405565b0390fd5b6097546001600160a01b0390811692833b1561033057600092602491604051958694859363f340fa0160e01b85521660048401525af180156134ff576134f65750565b61332e906123d1565b6040513d6000823e3d90fd5b949591909360409485519480602094858801936001600160601b03199060601b168452603488013785019461355260348260009889838201520360148101845201826123e4565b5190206001600160401b0388116136075760059188831b8751996135788683018c6123e4565b8a52848a0190820191368311613603578590915b8383106135f357505050509284935b88518510156135dc5784831b890184015190818110156135cc57865283526135c68686205b94612946565b9361359b565b90865283526135c68686206135c0565b949695509650505050146135ed5790565b50600190565b823581529181019186910161358c565b8780fd5b634e487b7160e01b85526041600452602485fdfe6080806040523461001657610654908161001c8239f35b600080fdfe60406080815260048036101561001457600080fd5b600091823560e01c806351cff8d914610388578063715018a6146103285780638129fc1c146101f65780638da5cb5b146101c9578063e3a9db1a1461018f578063f2fde38b146100f85763f340fa011461006d57600080fd5b60203660031901126100f45781356001600160a01b03811692908390036100f05761009661051d565b82845260656020528184208054913483018093116100dd575055513481527f2da466a7b24304f47e87fa2e1e5a81b9831ce54fec19055ce277ca2f39ba42c490602090a280f35b634e487b7160e01b865260119052602485fd5b8380fd5b8280fd5b5090346100f45760203660031901126100f4578035916001600160a01b03831680840361018b5761012761051d565b15610139578361013684610575565b80f35b906020608492519162461bcd60e51b8352820152602660248201527f4f776e61626c653a206e6577206f776e657220697320746865207a65726f206160448201526564647265737360d01b6064820152fd5b8480fd5b5090346100f45760203660031901126100f457356001600160a01b038116908190036100f457828291602094526065845220549051908152f35b8382346101f257816003193601126101f25760335490516001600160a01b039091168152602090f35b5080fd5b5090346100f457826003193601126100f457825460ff8160081c16159182809361031b575b8015610304575b156102aa575060ff198116600117845581610299575b5061025260ff845460081c1661024d816105be565b6105be565b61025b33610575565b610263575080f35b60207f7f26b83ff96e1f2b6a682f133852f6798a09c465da95921460cefb38474024989161ff001984541684555160018152a180f35b61ffff191661010117835538610238565b608490602085519162461bcd60e51b8352820152602e60248201527f496e697469616c697a61626c653a20636f6e747261637420697320616c72656160448201526d191e481a5b9a5d1a585b1a5e995960921b6064820152fd5b50303b1580156102225750600160ff831614610222565b50600160ff83161061021b565b833461038557806003193601126103855761034161051d565b603380546001600160a01b0319811690915581906001600160a01b03167f8be0079c531659141344cd1fd0a4f28419497f9722a3daafe3b4186f6b6457e08280a380f35b80fd5b5090346100f457602090816003193601126100f05780356001600160a01b038116939084900361018b576103ba61051d565b838552606583528085209185835493558247106104dc578580808086895af13d156104d75767ffffffffffffffff3d8181116104c457845191601f8201601f19908116603f01168301908111838210176104b1578552815287863d92013e5b1561044a5750519081527f7084f5476618d8e60b11ef0d7d3f06914655adb8793e28ff7f018d4c76d505d59190a280f35b83608492519162461bcd60e51b8352820152603a60248201527f416464726573733a20756e61626c6520746f2073656e642076616c75652c207260448201527f6563697069656e74206d617920686176652072657665727465640000000000006064820152fd5b634e487b7160e01b8a526041855260248afd5b634e487b7160e01b895260418452602489fd5b610419565b83606492519162461bcd60e51b8352820152601d60248201527f416464726573733a20696e73756666696369656e742062616c616e63650000006044820152fd5b6033546001600160a01b0316330361053157565b606460405162461bcd60e51b815260206004820152602060248201527f4f776e61626c653a2063616c6c6572206973206e6f7420746865206f776e65726044820152fd5b603380546001600160a01b039283166001600160a01b0319821681179092559091167f8be0079c531659141344cd1fd0a4f28419497f9722a3daafe3b4186f6b6457e0600080a3565b156105c557565b60405162461bcd60e51b815260206004820152602b60248201527f496e697469616c697a61626c653a20636f6e7472616374206973206e6f74206960448201526a6e697469616c697a696e6760a81b6064820152608490fdfea2646970667358221220054a425e64709b9c309f6d332ccce24b81225a75a12682ce0db2a80e5f1052eb64736f6c63430008150033a7ce836d032b2bf62b7e2097a8e0a6d8aeb35405ad15271e96d3b0188a1d06fbe767803f8ecf1dee6bb0345811f7312cda556058b19db6389ad9ae3568643ddda2646970667358221220c4befeb45bb9a2cdd656b5d7389ac8e41a6cbf86eadf36b01b334fcc9be0028864736f6c63430008150033",
  "linkReferences": {},
  "deployedLinkReferences": {}
}