{
  "_format": "hh-sol-artifact-1",
  "contractName": "TrancheVestingMerkleDistributorFactory_v_4_0",
  "sourceName": "contracts/claim/distributor-v4/TrancheVestingMerkleDistributorFactory.sol",
  "abi": [
    {
      "inputs": [
        {
          "internalType": "address",
          "name": "implementation",
          "type": "address"
        }
      ],
      "stateMutability": "nonpayable",
      "type": "constructor"
    },
    {
      "anonymous": false,
      "inputs": [
        {
          "indexed": true,
          "internalType": "address",
          "name": "distributor",
          "type": "address"
        }
      ],
      "name": "DistributorDeployed",
      "type": "event"
    },
    {
      "inputs": [
        {
          "internalType": "contract IERC20",
          "name": "_token",
          "type": "address"
        },
        {
          "internalType": "uint256",
          "name": "_total",
          "type": "uint256"
        },
        {
          "internalType": "string",
          "name": "_uri",
          "type": "string"
        },
        {
          "components": [
            {
              "internalType": "uint128",
              "name": "time",
              "type": "uint128"
            },
            {
              "internalType": "uint128",
              "name": "vestedFraction",
              "type": "uint128"
            }
          ],
          "internalType": "struct Tranche[]",
          "name": "_tranches",
          "type": "tuple[]"
        },
        {
          "internalType": "bytes32",
          "name": "_merkleRoot",
          "type": "bytes32"
        },
        {
          "internalType": "uint160",
          "name": "_maxDelayTime",
          "type": "uint160"
        },
        {
          "internalType": "address",
          "name": "_owner",
          "type": "address"
        },
        {
          "internalType": "address",
          "name": "_feeOrSupplyHolder",
          "type": "address"
        },
        {
          "internalType": "bool",
          "name": "_autoPull",
          "type": "bool"
        },
        {
          "internalType": "contract INetworkConfig",
          "name": "_networkConfig",
          "type": "address"
        },
        {
          "internalType": "uint256",
          "name": "_nonce",
          "type": "uint256"
        }
      ],
      "name": "deployDistributor",
      "outputs": [
        {
          "internalType": "contract TrancheVestingMerkleDistributor_v_4_0",
          "name": "distributor",
          "type": "address"
        }
      ],
      "stateMutability": "nonpayable",
      "type": "function"
    },
    {
      "inputs": [
        {
          "internalType": "uint256",
          "name": "",
          "type": "uint256"
        }
      ],
      "name": "distributors",
      "outputs": [
        {
          "internalType": "address",
          "name": "",
          "type": "address"
        }
      ],
      "stateMutability": "view",
      "type": "function"
    },
    {
      "inputs": [],
      "name": "getImplementation",
      "outputs": [
        {
          "internalType": "address",
          "name": "",
          "type": "address"
        }
      ],
      "stateMutability": "view",
      "type": "function"
    },
    {
      "inputs": [
        {
          "internalType": "contract IERC20",
          "name": "_token",
          "type": "address"
        },
        {
          "internalType": "uint256",
          "name": "_total",
          "type": "uint256"
        },
        {
          "internalType": "string",
          "name": "_uri",
          "type": "string"
        },
        {
          "components": [
            {
              "internalType": "uint128",
              "name": "time",
              "type": "uint128"
            },
            {
              "internalType": "uint128",
              "name": "vestedFraction",
              "type": "uint128"
            }
          ],
          "internalType": "struct Tranche[]",
          "name": "_tranches",
          "type": "tuple[]"
        },
        {
          "internalType": "bytes32",
          "name": "_merkleRoot",
          "type": "bytes32"
        },
        {
          "internalType": "uint160",
          "name": "_maxDelayTime",
          "type": "uint160"
        },
        {
          "internalType": "address",
          "name": "_owner",
          "type": "address"
        },
        {
          "internalType": "address",
          "name": "_feeOrSupplyHolder",
          "type": "address"
        },
        {
          "internalType": "bool",
          "name": "_autoPull",
          "type": "bool"
        },
        {
          "internalType": "contract INetworkConfig",
          "name": "_networkConfig",
          "type": "address"
        },
        {
          "internalType": "uint256",
          "name": "_nonce",
          "type": "uint256"
        }
      ],
      "name": "predictDistributorAddress",
      "outputs": [
        {
          "internalType": "address",
          "name": "",
          "type": "address"
        }
      ],
      "stateMutability": "view",
      "type": "function"
    }
  ],
  "bytecode": "0x60a03461007757601f61082d38819003918201601f19168301916001600160401b0383118484101761007c5780849260209460405283398101031261007757516001600160a01b03811681036100775760805260405161079a9081610093823960805181818160990152818161013501526103610152f35b600080fd5b634e487b7160e01b600052604160045260246000fdfe6040608081526004908136101561001557600080fd5b600091823560e01c90816350b492ba14610390578163aaf10f421461034c578163afbaabfb146100ff575063e9913f2c1461004f57600080fd5b346100fb576020906055604361007961006736610472565b999890989791979692969593956106c4565b83513060388201526f5af43d82803e903d91602b57fd5bf3ff60248201527f00000000000000000000000000000000000000000000000000000000000000006014820152733d602d80600a3d3981f3363d3d373d3d3d363d73815260588101919091526037600c8201206078820152012090516001600160a01b039091168152f35b5080fd5b8383346100fb5781610133600961011536610472565b8a9f92999398949795969c918a8a8f8a849f918b8b8f948c906106c4565b7f0000000000000000000000000000000000000000000000000000000000000000608881901c62ffffff16763d602d80600a3d3981f3363d3d373d3d3d363d7300000017835260781b6e5af43d82803e903d91602b57fd5bf3176020526001600160a01b039a8b9260379190f5169c8d15610309578b54680100000000000000008110156102f557908e808f8f9e9d9c9b9a999897969594908f6102008f91937f448708bcd9fda3435ba79d40bb017e884dcbed0b1e972743c8fd32f6c5ff47bb946001820190556103d7565b819291549060031b9186831b921b1916179055519f80a23b156102f157948f998c9b98956102738f9c96610261849b978f9e9b8f879b99889a896101449463227d7a4360e11b85521690830152602482015261014060448201520190610638565b8d81036003190160648f015290610678565b9960848c01521660a48a01521660c48801521660e4860152151561010485015216610124830152038183885af180156102e5576102b5575b6020848451908152f35b67ffffffffffffffff82116102d2575060209350815283806102ab565b634e487b7160e01b815260418552602490fd5b508251903d90823e3d90fd5b8b80fd5b8f8d6041602492634e487b7160e01b835252fd5b60648f60208f519162461bcd60e51b8352820152601760248201527f455243313136373a2063726561746532206661696c65640000000000000000006044820152fd5b5050346100fb57816003193601126100fb57517f00000000000000000000000000000000000000000000000000000000000000006001600160a01b03168152602090f35b9050346103d35760203660031901126103d357359180548310156103d057506103ba6020926103d7565b905491519160018060a01b039160031b1c168152f35b80fd5b8280fd5b90600091825481101561040d578280527f290decd9548b62a8d60345a988386fc84ba6bc95484008f6362f93160ef3e563019190565b634e487b7160e01b83526032600452602483fd5b90601f8019910116810190811067ffffffffffffffff82111761044357604052565b634e487b7160e01b600052604160045260246000fd5b35906001600160801b038216820361046d57565b600080fd5b61016060031982011261046d576001600160a01b03916004908135848116810361046d5793602480359460443567ffffffffffffffff80821161046d578260238301121561046d578187013591818311610624576040805160209691946104e2601f8201601f1916890183610421565b8082528683828601011161046d578083899501858401376000978891830101529860643593808511610620578660238601121561062057848201359281841161060f57865197610537868660051b018a610421565b84895281868a019560061b8801019681881161060b578201945b8786106105b557505050505050505050926084359260a43581811681036105b1579260c43582811681036100fb579260e43583811681036103d357926101043580151581036105b157926101243591821682036103d05750906101443590565b8380fd5b888683031261060b578851898101818110868211176105f9578a52899188916105dd89610459565b81526105ea838a01610459565b83820152815201950194610551565b634e487b7160e01b8d5260418752848dfd5b8a80fd5b634e487b7160e01b89526041835288fd5b8780fd5b84604189634e487b7160e01b600052526000fd5b919082519283825260005b848110610664575050826000602080949584010152601f8019910116010190565b602081830181015184830182015201610643565b90815180825260208080930193019160005b828110610698575050505090565b835180516001600160801b0390811687529083015116858301526040909401939281019260010161068a565b9061071e9a9661075a9a95989261070c979a959a6040519d8e809d60018060a01b039b8c998a9889809816602086015260408501526101606060850152610180840190610638565b916080601f1982850301910152610678565b9a60a08d01521660c08b01521660e08901521661010087015215156101208601521661014084015261016083015203601f198101835282610421565b602081519101209056fea2646970667358221220f0c04d7e83a9a8f1bbb9bc3211984772b352a088f3d5ca2fc8792adf0ca1d0b064736f6c63430008150033",
  "linkReferences": {},
  "deployedLinkReferences": {}
}