{
  "_format": "hh-sol-artifact-1",
  "contractName": "TrancheVestingMerkleDistributor_v_4_0",
  "sourceName": "contracts/claim/distributor-v4/TrancheVestingMerkleDistributor.sol",
  "abi": [
    {
      "inputs": [],
      "stateMutability": "nonpayable",
      "type": "constructor"
    },
    {
      "inputs": [],
      "name": "InvalidShortString",
      "type": "error"
    },
    {
      "inputs": [
        {
          "internalType": "string",
          "name": "str",
          "type": "string"
        }
      ],
      "name": "StringTooLong",
      "type": "error"
    },
    {
      "anonymous": false,
      "inputs": [
        {
          "indexed": true,
          "internalType": "address",
          "name": "beneficiary",
          "type": "address"
        },
        {
          "indexed": false,
          "internalType": "int256",
          "name": "amount",
          "type": "int256"
        }
      ],
      "name": "Adjust",
      "type": "event"
    },
    {
      "anonymous": false,
      "inputs": [
        {
          "indexed": true,
          "internalType": "address",
          "name": "owner",
          "type": "address"
        },
        {
          "indexed": true,
          "internalType": "address",
          "name": "spender",
          "type": "address"
        },
        {
          "indexed": false,
          "internalType": "uint256",
          "name": "value",
          "type": "uint256"
        }
      ],
      "name": "Approval",
      "type": "event"
    },
    {
      "anonymous": false,
      "inputs": [
        {
          "indexed": true,
          "internalType": "address",
          "name": "beneficiary",
          "type": "address"
        },
        {
          "indexed": false,
          "internalType": "uint256",
          "name": "amount",
          "type": "uint256"
        }
      ],
      "name": "Claim",
      "type": "event"
    },
    {
      "anonymous": false,
      "inputs": [
        {
          "indexed": true,
          "internalType": "address",
          "name": "delegator",
          "type": "address"
        },
        {
          "indexed": true,
          "internalType": "address",
          "name": "fromDelegate",
          "type": "address"
        },
        {
          "indexed": true,
          "internalType": "address",
          "name": "toDelegate",
          "type": "address"
        }
      ],
      "name": "DelegateChanged",
      "type": "event"
    },
    {
      "anonymous": false,
      "inputs": [
        {
          "indexed": true,
          "internalType": "address",
          "name": "delegate",
          "type": "address"
        },
        {
          "indexed": false,
          "internalType": "uint256",
          "name": "previousBalance",
          "type": "uint256"
        },
        {
          "indexed": false,
          "internalType": "uint256",
          "name": "newBalance",
          "type": "uint256"
        }
      ],
      "name": "DelegateVotesChanged",
      "type": "event"
    },
    {
      "anonymous": false,
      "inputs": [],
      "name": "EIP712DomainChanged",
      "type": "event"
    },
    {
      "anonymous": false,
      "inputs": [
        {
          "indexed": true,
          "internalType": "address",
          "name": "beneficiary",
          "type": "address"
        },
        {
          "indexed": false,
          "internalType": "uint256",
          "name": "total",
          "type": "uint256"
        }
      ],
      "name": "InitializeDistributionRecord",
      "type": "event"
    },
    {
      "anonymous": false,
      "inputs": [
        {
          "indexed": true,
          "internalType": "contract IERC20",
          "name": "token",
          "type": "address"
        },
        {
          "indexed": false,
          "internalType": "uint256",
          "name": "total",
          "type": "uint256"
        },
        {
          "indexed": false,
          "internalType": "string",
          "name": "uri",
          "type": "string"
        },
        {
          "indexed": false,
          "internalType": "uint256",
          "name": "fractionDenominator",
          "type": "uint256"
        }
      ],
      "name": "InitializeDistributor",
      "type": "event"
    },
    {
      "anonymous": false,
      "inputs": [
        {
          "indexed": false,
          "internalType": "uint8",
          "name": "version",
          "type": "uint8"
        }
      ],
      "name": "Initialized",
      "type": "event"
    },
    {
      "anonymous": false,
      "inputs": [
        {
          "indexed": true,
          "internalType": "address",
          "name": "previousOwner",
          "type": "address"
        },
        {
          "indexed": true,
          "internalType": "address",
          "name": "newOwner",
          "type": "address"
        }
      ],
      "name": "OwnershipTransferred",
      "type": "event"
    },
    {
      "anonymous": false,
      "inputs": [
        {
          "indexed": false,
          "internalType": "uint160",
          "name": "maxDelayTime",
          "type": "uint160"
        }
      ],
      "name": "SetDelay",
      "type": "event"
    },
    {
      "anonymous": false,
      "inputs": [
        {
          "indexed": false,
          "internalType": "bytes32",
          "name": "merkleRoot",
          "type": "bytes32"
        }
      ],
      "name": "SetMerkleRoot",
      "type": "event"
    },
    {
      "anonymous": false,
      "inputs": [
        {
          "indexed": false,
          "internalType": "address",
          "name": "recipient",
          "type": "address"
        }
      ],
      "name": "SetSweepRecipient",
      "type": "event"
    },
    {
      "anonymous": false,
      "inputs": [
        {
          "indexed": true,
          "internalType": "contract IERC20",
          "name": "token",
          "type": "address"
        }
      ],
      "name": "SetToken",
      "type": "event"
    },
    {
      "anonymous": false,
      "inputs": [
        {
          "indexed": false,
          "internalType": "uint256",
          "name": "total",
          "type": "uint256"
        }
      ],
      "name": "SetTotal",
      "type": "event"
    },
    {
      "anonymous": false,
      "inputs": [
        {
          "indexed": true,
          "internalType": "uint256",
          "name": "index",
          "type": "uint256"
        },
        {
          "indexed": false,
          "internalType": "uint128",
          "name": "time",
          "type": "uint128"
        },
        {
          "indexed": false,
          "internalType": "uint128",
          "name": "VestedFraction",
          "type": "uint128"
        }
      ],
      "name": "SetTranche",
      "type": "event"
    },
    {
      "anonymous": false,
      "inputs": [
        {
          "indexed": true,
          "internalType": "string",
          "name": "uri",
          "type": "string"
        }
      ],
      "name": "SetUri",
      "type": "event"
    },
    {
      "anonymous": false,
      "inputs": [
        {
          "indexed": false,
          "internalType": "uint256",
          "name": "voteFactor",
          "type": "uint256"
        }
      ],
      "name": "SetVoteFactor",
      "type": "event"
    },
    {
      "anonymous": false,
      "inputs": [
        {
          "indexed": false,
          "internalType": "uint256",
          "name": "amount",
          "type": "uint256"
        }
      ],
      "name": "SweepNative",
      "type": "event"
    },
    {
      "anonymous": false,
      "inputs": [
        {
          "indexed": true,
          "internalType": "address",
          "name": "token",
          "type": "address"
        },
        {
          "indexed": false,
          "internalType": "uint256",
          "name": "amount",
          "type": "uint256"
        }
      ],
      "name": "SweepToken",
      "type": "event"
    },
    {
      "anonymous": false,
      "inputs": [
        {
          "indexed": true,
          "internalType": "address",
          "name": "from",
          "type": "address"
        },
        {
          "indexed": true,
          "internalType": "address",
          "name": "to",
          "type": "address"
        },
        {
          "indexed": false,
          "internalType": "uint256",
          "name": "value",
          "type": "uint256"
        }
      ],
      "name": "Transfer",
      "type": "event"
    },
    {
      "inputs": [],
      "name": "CLOCK_MODE",
      "outputs": [
        {
          "internalType": "string",
          "name": "",
          "type": "string"
        }
      ],
      "stateMutability": "view",
      "type": "function"
    },
    {
      "inputs": [],
      "name": "DOMAIN_SEPARATOR",
      "outputs": [
        {
          "internalType": "bytes32",
          "name": "",
          "type": "bytes32"
        }
      ],
      "stateMutability": "view",
      "type": "function"
    },
    {
      "inputs": [],
      "name": "NAME",
      "outputs": [
        {
          "internalType": "string",
          "name": "",
          "type": "string"
        }
      ],
      "stateMutability": "pure",
      "type": "function"
    },
    {
      "inputs": [],
      "name": "VERSION",
      "outputs": [
        {
          "internalType": "uint256",
          "name": "",
          "type": "uint256"
        }
      ],
      "stateMutability": "pure",
      "type": "function"
    },
    {
      "inputs": [
        {
          "internalType": "address",
          "name": "beneficiary",
          "type": "address"
        },
        {
          "internalType": "int256",
          "name": "amount",
          "type": "int256"
        }
      ],
      "name": "adjust",
      "outputs": [],
      "stateMutability": "nonpayable",
      "type": "function"
    },
    {
      "inputs": [
        {
          "internalType": "address",
          "name": "owner",
          "type": "address"
        },
        {
          "internalType": "address",
          "name": "spender",
          "type": "address"
        }
      ],
      "name": "allowance",
      "outputs": [
        {
          "internalType": "uint256",
          "name": "",
          "type": "uint256"
        }
      ],
      "stateMutability": "view",
      "type": "function"
    },
    {
      "inputs": [
        {
          "internalType": "address",
          "name": "spender",
          "type": "address"
        },
        {
          "internalType": "uint256",
          "name": "amount",
          "type": "uint256"
        }
      ],
      "name": "approve",
      "outputs": [
        {
          "internalType": "bool",
          "name": "",
          "type": "bool"
        }
      ],
      "stateMutability": "nonpayable",
      "type": "function"
    },
    {
      "inputs": [
        {
          "internalType": "address",
          "name": "account",
          "type": "address"
        }
      ],
      "name": "balanceOf",
      "outputs": [
        {
          "internalType": "uint256",
          "name": "",
          "type": "uint256"
        }
      ],
      "stateMutability": "view",
      "type": "function"
    },
    {
      "inputs": [
        {
          "internalType": "address",
          "name": "account",
          "type": "address"
        },
        {
          "internalType": "uint32",
          "name": "pos",
          "type": "uint32"
        }
      ],
      "name": "checkpoints",
      "outputs": [
        {
          "components": [
            {
              "internalType": "uint32",
              "name": "fromBlock",
              "type": "uint32"
            },
            {
              "internalType": "uint224",
              "name": "votes",
              "type": "uint224"
            }
          ],
          "internalType": "struct ERC20Votes.Checkpoint",
          "name": "",
          "type": "tuple"
        }
      ],
      "stateMutability": "view",
      "type": "function"
    },
    {
      "inputs": [
        {
          "internalType": "uint256",
          "name": "index",
          "type": "uint256"
        },
        {
          "internalType": "address",
          "name": "beneficiary",
          "type": "address"
        },
        {
          "internalType": "uint256",
          "name": "totalAmount",
          "type": "uint256"
        },
        {
          "internalType": "bytes32[]",
          "name": "merkleProof",
          "type": "bytes32[]"
        },
        {
          "internalType": "address payable",
          "name": "platformFlatRateFeeRecipient",
          "type": "address"
        },
        {
          "internalType": "uint256",
          "name": "platformFlatRateFeeAmount",
          "type": "uint256"
        }
      ],
      "name": "claim",
      "outputs": [],
      "stateMutability": "payable",
      "type": "function"
    },
    {
      "inputs": [],
      "name": "claimed",
      "outputs": [
        {
          "internalType": "uint256",
          "name": "",
          "type": "uint256"
        }
      ],
      "stateMutability": "view",
      "type": "function"
    },
    {
      "inputs": [],
      "name": "clock",
      "outputs": [
        {
          "internalType": "uint48",
          "name": "",
          "type": "uint48"
        }
      ],
      "stateMutability": "view",
      "type": "function"
    },
    {
      "inputs": [],
      "name": "decimals",
      "outputs": [
        {
          "internalType": "uint8",
          "name": "",
          "type": "uint8"
        }
      ],
      "stateMutability": "view",
      "type": "function"
    },
    {
      "inputs": [
        {
          "internalType": "address",
          "name": "spender",
          "type": "address"
        },
        {
          "internalType": "uint256",
          "name": "subtractedValue",
          "type": "uint256"
        }
      ],
      "name": "decreaseAllowance",
      "outputs": [
        {
          "internalType": "bool",
          "name": "",
          "type": "bool"
        }
      ],
      "stateMutability": "nonpayable",
      "type": "function"
    },
    {
      "inputs": [
        {
          "internalType": "address",
          "name": "delegatee",
          "type": "address"
        }
      ],
      "name": "delegate",
      "outputs": [],
      "stateMutability": "nonpayable",
      "type": "function"
    },
    {
      "inputs": [
        {
          "internalType": "address",
          "name": "delegatee",
          "type": "address"
        },
        {
          "internalType": "uint256",
          "name": "nonce",
          "type": "uint256"
        },
        {
          "internalType": "uint256",
          "name": "expiry",
          "type": "uint256"
        },
        {
          "internalType": "uint8",
          "name": "v",
          "type": "uint8"
        },
        {
          "internalType": "bytes32",
          "name": "r",
          "type": "bytes32"
        },
        {
          "internalType": "bytes32",
          "name": "s",
          "type": "bytes32"
        }
      ],
      "name": "delegateBySig",
      "outputs": [],
      "stateMutability": "nonpayable",
      "type": "function"
    },
    {
      "inputs": [
        {
          "internalType": "address",
          "name": "account",
          "type": "address"
        }
      ],
      "name": "delegates",
      "outputs": [
        {
          "internalType": "address",
          "name": "",
          "type": "address"
        }
      ],
      "stateMutability": "view",
      "type": "function"
    },
    {
      "inputs": [],
      "name": "distancePerSecond",
      "outputs": [
        {
          "internalType": "uint160",
          "name": "",
          "type": "uint160"
        }
      ],
      "stateMutability": "view",
      "type": "function"
    },
    {
      "inputs": [],
      "name": "eip712Domain",
      "outputs": [
        {
          "internalType": "bytes1",
          "name": "fields",
          "type": "bytes1"
        },
        {
          "internalType": "string",
          "name": "name",
          "type": "string"
        },
        {
          "internalType": "string",
          "name": "version",
          "type": "string"
        },
        {
          "internalType": "uint256",
          "name": "chainId",
          "type": "uint256"
        },
        {
          "internalType": "address",
          "name": "verifyingContract",
          "type": "address"
        },
        {
          "internalType": "bytes32",
          "name": "salt",
          "type": "bytes32"
        },
        {
          "internalType": "uint256[]",
          "name": "extensions",
          "type": "uint256[]"
        }
      ],
      "stateMutability": "view",
      "type": "function"
    },
    {
      "inputs": [
        {
          "internalType": "address",
          "name": "beneficiary",
          "type": "address"
        }
      ],
      "name": "getClaimableAmount",
      "outputs": [
        {
          "internalType": "uint256",
          "name": "",
          "type": "uint256"
        }
      ],
      "stateMutability": "view",
      "type": "function"
    },
    {
      "inputs": [
        {
          "internalType": "address",
          "name": "beneficiary",
          "type": "address"
        }
      ],
      "name": "getDistributionRecord",
      "outputs": [
        {
          "components": [
            {
              "internalType": "bool",
              "name": "initialized",
              "type": "bool"
            },
            {
              "internalType": "uint120",
              "name": "total",
              "type": "uint120"
            },
            {
              "internalType": "uint120",
              "name": "claimed",
              "type": "uint120"
            }
          ],
          "internalType": "struct DistributionRecord",
          "name": "",
          "type": "tuple"
        }
      ],
      "stateMutability": "view",
      "type": "function"
    },
    {
      "inputs": [
        {
          "internalType": "address",
          "name": "user",
          "type": "address"
        }
      ],
      "name": "getFairDelayTime",
      "outputs": [
        {
          "internalType": "uint256",
          "name": "",
          "type": "uint256"
        }
      ],
      "stateMutability": "view",
      "type": "function"
    },
    {
      "inputs": [],
      "name": "getFractionDenominator",
      "outputs": [
        {
          "internalType": "uint256",
          "name": "",
          "type": "uint256"
        }
      ],
      "stateMutability": "view",
      "type": "function"
    },
    {
      "inputs": [],
      "name": "getMerkleRoot",
      "outputs": [
        {
          "internalType": "bytes32",
          "name": "",
          "type": "bytes32"
        }
      ],
      "stateMutability": "view",
      "type": "function"
    },
    {
      "inputs": [
        {
          "internalType": "contract IOracleOrL2OracleWithSequencerCheck",
          "name": "oracle",
          "type": "address"
        }
      ],
      "name": "getOraclePrice",
      "outputs": [
        {
          "internalType": "uint256",
          "name": "",
          "type": "uint256"
        }
      ],
      "stateMutability": "view",
      "type": "function"
    },
    {
      "inputs": [
        {
          "internalType": "uint256",
          "name": "timepoint",
          "type": "uint256"
        }
      ],
      "name": "getPastTotalSupply",
      "outputs": [
        {
          "internalType": "uint256",
          "name": "",
          "type": "uint256"
        }
      ],
      "stateMutability": "view",
      "type": "function"
    },
    {
      "inputs": [
        {
          "internalType": "address",
          "name": "account",
          "type": "address"
        },
        {
          "internalType": "uint256",
          "name": "timepoint",
          "type": "uint256"
        }
      ],
      "name": "getPastVotes",
      "outputs": [
        {
          "internalType": "uint256",
          "name": "",
          "type": "uint256"
        }
      ],
      "stateMutability": "view",
      "type": "function"
    },
    {
      "inputs": [],
      "name": "getSweepRecipient",
      "outputs": [
        {
          "internalType": "address payable",
          "name": "",
          "type": "address"
        }
      ],
      "stateMutability": "view",
      "type": "function"
    },
    {
      "inputs": [],
      "name": "getTotalVotes",
      "outputs": [
        {
          "internalType": "uint256",
          "name": "",
          "type": "uint256"
        }
      ],
      "stateMutability": "view",
      "type": "function"
    },
    {
      "inputs": [
        {
          "internalType": "uint256",
          "name": "i",
          "type": "uint256"
        }
      ],
      "name": "getTranche",
      "outputs": [
        {
          "components": [
            {
              "internalType": "uint128",
              "name": "time",
              "type": "uint128"
            },
            {
              "internalType": "uint128",
              "name": "vestedFraction",
              "type": "uint128"
            }
          ],
          "internalType": "struct Tranche",
          "name": "",
          "type": "tuple"
        }
      ],
      "stateMutability": "view",
      "type": "function"
    },
    {
      "inputs": [],
      "name": "getTranches",
      "outputs": [
        {
          "components": [
            {
              "internalType": "uint128",
              "name": "time",
              "type": "uint128"
            },
            {
              "internalType": "uint128",
              "name": "vestedFraction",
              "type": "uint128"
            }
          ],
          "internalType": "struct Tranche[]",
          "name": "",
          "type": "tuple[]"
        }
      ],
      "stateMutability": "view",
      "type": "function"
    },
    {
      "inputs": [
        {
          "internalType": "address",
          "name": "beneficiary",
          "type": "address"
        },
        {
          "internalType": "uint256",
          "name": "time",
          "type": "uint256"
        }
      ],
      "name": "getVestedFraction",
      "outputs": [
        {
          "internalType": "uint256",
          "name": "",
          "type": "uint256"
        }
      ],
      "stateMutability": "view",
      "type": "function"
    },
    {
      "inputs": [
        {
          "internalType": "address",
          "name": "",
          "type": "address"
        }
      ],
      "name": "getVoteFactor",
      "outputs": [
        {
          "internalType": "uint256",
          "name": "",
          "type": "uint256"
        }
      ],
      "stateMutability": "view",
      "type": "function"
    },
    {
      "inputs": [
        {
          "internalType": "address",
          "name": "account",
          "type": "address"
        }
      ],
      "name": "getVotes",
      "outputs": [
        {
          "internalType": "uint256",
          "name": "",
          "type": "uint256"
        }
      ],
      "stateMutability": "view",
      "type": "function"
    },
    {
      "inputs": [
        {
          "internalType": "address",
          "name": "spender",
          "type": "address"
        },
        {
          "internalType": "uint256",
          "name": "addedValue",
          "type": "uint256"
        }
      ],
      "name": "increaseAllowance",
      "outputs": [
        {
          "internalType": "bool",
          "name": "",
          "type": "bool"
        }
      ],
      "stateMutability": "nonpayable",
      "type": "function"
    },
    {
      "inputs": [
        {
          "internalType": "contract IERC20",
          "name": "_token",
          "type": "address"
        },
        {
          "internalType": "uint256",
          "name": "_total",
          "type": "uint256"
        },
        {
          "internalType": "string",
          "name": "_uri",
          "type": "string"
        },
        {
          "components": [
            {
              "internalType": "uint128",
              "name": "time",
              "type": "uint128"
            },
            {
              "internalType": "uint128",
              "name": "vestedFraction",
              "type": "uint128"
            }
          ],
          "internalType": "struct Tranche[]",
          "name": "_tranches",
          "type": "tuple[]"
        },
        {
          "internalType": "bytes32",
          "name": "_merkleRoot",
          "type": "bytes32"
        },
        {
          "internalType": "uint160",
          "name": "_maxDelayTime",
          "type": "uint160"
        },
        {
          "internalType": "address",
          "name": "_owner",
          "type": "address"
        },
        {
          "internalType": "address",
          "name": "_feeOrSupplyHolder",
          "type": "address"
        },
        {
          "internalType": "bool",
          "name": "_autoPull",
          "type": "bool"
        },
        {
          "internalType": "contract INetworkConfig",
          "name": "_networkConfig",
          "type": "address"
        }
      ],
      "name": "initialize",
      "outputs": [],
      "stateMutability": "nonpayable",
      "type": "function"
    },
    {
      "inputs": [
        {
          "internalType": "uint256",
          "name": "index",
          "type": "uint256"
        },
        {
          "internalType": "address",
          "name": "beneficiary",
          "type": "address"
        },
        {
          "internalType": "uint256",
          "name": "amount",
          "type": "uint256"
        },
        {
          "internalType": "bytes32[]",
          "name": "merkleProof",
          "type": "bytes32[]"
        }
      ],
      "name": "initializeDistributionRecord",
      "outputs": [],
      "stateMutability": "nonpayable",
      "type": "function"
    },
    {
      "inputs": [],
      "name": "maxDelayTime",
      "outputs": [
        {
          "internalType": "uint160",
          "name": "",
          "type": "uint160"
        }
      ],
      "stateMutability": "view",
      "type": "function"
    },
    {
      "inputs": [],
      "name": "name",
      "outputs": [
        {
          "internalType": "string",
          "name": "",
          "type": "string"
        }
      ],
      "stateMutability": "view",
      "type": "function"
    },
    {
      "inputs": [
        {
          "internalType": "address",
          "name": "owner",
          "type": "address"
        }
      ],
      "name": "nonces",
      "outputs": [
        {
          "internalType": "uint256",
          "name": "",
          "type": "uint256"
        }
      ],
      "stateMutability": "view",
      "type": "function"
    },
    {
      "inputs": [
        {
          "internalType": "address",
          "name": "account",
          "type": "address"
        }
      ],
      "name": "numCheckpoints",
      "outputs": [
        {
          "internalType": "uint32",
          "name": "",
          "type": "uint32"
        }
      ],
      "stateMutability": "view",
      "type": "function"
    },
    {
      "inputs": [],
      "name": "owner",
      "outputs": [
        {
          "internalType": "address",
          "name": "",
          "type": "address"
        }
      ],
      "stateMutability": "view",
      "type": "function"
    },
    {
      "inputs": [
        {
          "internalType": "address",
          "name": "owner",
          "type": "address"
        },
        {
          "internalType": "address",
          "name": "spender",
          "type": "address"
        },
        {
          "internalType": "uint256",
          "name": "value",
          "type": "uint256"
        },
        {
          "internalType": "uint256",
          "name": "deadline",
          "type": "uint256"
        },
        {
          "internalType": "uint8",
          "name": "v",
          "type": "uint8"
        },
        {
          "internalType": "bytes32",
          "name": "r",
          "type": "bytes32"
        },
        {
          "internalType": "bytes32",
          "name": "s",
          "type": "bytes32"
        }
      ],
      "name": "permit",
      "outputs": [],
      "stateMutability": "nonpayable",
      "type": "function"
    },
    {
      "inputs": [],
      "name": "randomValue",
      "outputs": [
        {
          "internalType": "uint160",
          "name": "",
          "type": "uint160"
        }
      ],
      "stateMutability": "view",
      "type": "function"
    },
    {
      "inputs": [],
      "name": "renounceOwnership",
      "outputs": [],
      "stateMutability": "nonpayable",
      "type": "function"
    },
    {
      "inputs": [
        {
          "internalType": "bytes32",
          "name": "_merkleRoot",
          "type": "bytes32"
        }
      ],
      "name": "setMerkleRoot",
      "outputs": [],
      "stateMutability": "nonpayable",
      "type": "function"
    },
    {
      "inputs": [
        {
          "internalType": "address payable",
          "name": "_recipient",
          "type": "address"
        }
      ],
      "name": "setSweepRecipient",
      "outputs": [],
      "stateMutability": "nonpayable",
      "type": "function"
    },
    {
      "inputs": [
        {
          "internalType": "contract IERC20",
          "name": "_token",
          "type": "address"
        }
      ],
      "name": "setToken",
      "outputs": [],
      "stateMutability": "nonpayable",
      "type": "function"
    },
    {
      "inputs": [
        {
          "internalType": "uint256",
          "name": "_total",
          "type": "uint256"
        }
      ],
      "name": "setTotal",
      "outputs": [],
      "stateMutability": "nonpayable",
      "type": "function"
    },
    {
      "inputs": [
        {
          "components": [
            {
              "internalType": "uint128",
              "name": "time",
              "type": "uint128"
            },
            {
              "internalType": "uint128",
              "name": "vestedFraction",
              "type": "uint128"
            }
          ],
          "internalType": "struct Tranche[]",
          "name": "_tranches",
          "type": "tuple[]"
        }
      ],
      "name": "setTranches",
      "outputs": [],
      "stateMutability": "nonpayable",
      "type": "function"
    },
    {
      "inputs": [
        {
          "internalType": "string",
          "name": "_uri",
          "type": "string"
        }
      ],
      "name": "setUri",
      "outputs": [],
      "stateMutability": "nonpayable",
      "type": "function"
    },
    {
      "inputs": [
        {
          "internalType": "uint256",
          "name": "_voteFactor",
          "type": "uint256"
        }
      ],
      "name": "setVoteFactor",
      "outputs": [],
      "stateMutability": "nonpayable",
      "type": "function"
    },
    {
      "inputs": [
        {
          "internalType": "uint256",
          "name": "amount",
          "type": "uint256"
        }
      ],
      "name": "sweepNative",
      "outputs": [],
      "stateMutability": "nonpayable",
      "type": "function"
    },
    {
      "inputs": [],
      "name": "sweepNative",
      "outputs": [],
      "stateMutability": "nonpayable",
      "type": "function"
    },
    {
      "inputs": [
        {
          "internalType": "contract IERC20",
          "name": "token",
          "type": "address"
        }
      ],
      "name": "sweepToken",
      "outputs": [],
      "stateMutability": "nonpayable",
      "type": "function"
    },
    {
      "inputs": [
        {
          "internalType": "contract IERC20",
          "name": "token",
          "type": "address"
        },
        {
          "internalType": "uint256",
          "name": "amount",
          "type": "uint256"
        }
      ],
      "name": "sweepToken",
      "outputs": [],
      "stateMutability": "nonpayable",
      "type": "function"
    },
    {
      "inputs": [],
      "name": "symbol",
      "outputs": [
        {
          "internalType": "string",
          "name": "",
          "type": "string"
        }
      ],
      "stateMutability": "view",
      "type": "function"
    },
    {
      "inputs": [],
      "name": "token",
      "outputs": [
        {
          "internalType": "contract IERC20",
          "name": "",
          "type": "address"
        }
      ],
      "stateMutability": "view",
      "type": "function"
    },
    {
      "inputs": [
        {
          "internalType": "uint256",
          "name": "tokenQuantity",
          "type": "uint256"
        },
        {
          "internalType": "uint256",
          "name": "tokenDecimals",
          "type": "uint256"
        },
        {
          "internalType": "contract IOracleOrL2OracleWithSequencerCheck",
          "name": "oracle",
          "type": "address"
        }
      ],
      "name": "tokensToBaseCurrency",
      "outputs": [
        {
          "internalType": "uint256",
          "name": "value",
          "type": "uint256"
        }
      ],
      "stateMutability": "view",
      "type": "function"
    },
    {
      "inputs": [],
      "name": "total",
      "outputs": [
        {
          "internalType": "uint256",
          "name": "",
          "type": "uint256"
        }
      ],
      "stateMutability": "view",
      "type": "function"
    },
    {
      "inputs": [],
      "name": "totalSupply",
      "outputs": [
        {
          "internalType": "uint256",
          "name": "",
          "type": "uint256"
        }
      ],
      "stateMutability": "view",
      "type": "function"
    },
    {
      "inputs": [
        {
          "internalType": "address",
          "name": "to",
          "type": "address"
        },
        {
          "internalType": "uint256",
          "name": "amount",
          "type": "uint256"
        }
      ],
      "name": "transfer",
      "outputs": [
        {
          "internalType": "bool",
          "name": "",
          "type": "bool"
        }
      ],
      "stateMutability": "nonpayable",
      "type": "function"
    },
    {
      "inputs": [
        {
          "internalType": "address",
          "name": "from",
          "type": "address"
        },
        {
          "internalType": "address",
          "name": "to",
          "type": "address"
        },
        {
          "internalType": "uint256",
          "name": "amount",
          "type": "uint256"
        }
      ],
      "name": "transferFrom",
      "outputs": [
        {
          "internalType": "bool",
          "name": "",
          "type": "bool"
        }
      ],
      "stateMutability": "nonpayable",
      "type": "function"
    },
    {
      "inputs": [
        {
          "internalType": "address",
          "name": "newOwner",
          "type": "address"
        }
      ],
      "name": "transferOwnership",
      "outputs": [],
      "stateMutability": "nonpayable",
      "type": "function"
    },
    {
      "inputs": [],
      "name": "uri",
      "outputs": [
        {
          "internalType": "string",
          "name": "",
          "type": "string"
        }
      ],
      "stateMutability": "view",
      "type": "function"
    }
  ],
  "bytecode": "0x6101606040818152346200058257620000188262000587565b60158252602091828101917f496e7465726e616c20766f746520747261636b6572000000000000000000000093848452815194620000568662000587565b60158652818601528151906200006c8262000587565b600382526212559560ea1b81830152825195620000898762000587565b6001808852603160f81b8389019081526000805462010000600160b01b0319811633601081811b62010000600160b01b031692909217845589519598939693957fccdd1baf560d2682736fa25752c8ccc0c5fc4079b245b0acf7389776308d5b1f9389939192911c6001600160a01b03167f8be0079c531659141344cd1fd0a4f28419497f9722a3daafe3b4186f6b6457e08980a388546001600160a01b031916339081178a558152a180516001600160401b03939091908483116200056e576005928354928984811c9416801562000563575b898510146200046f578190601f9485811162000512575b508990858311600114620004ae578992620004a2575b5050600019600383901b1c191690891b1783555b8051928584116200048e57600654908982811c9216801562000483575b898310146200046f57908392918594821162000418575b505087918311600114620003b2578692620003a6575b5050600019600383901b1c191690861b176006555b6200020887620005b9565b976101209889526200021a8a62000796565b97610140988952519020988960e0525190209361010098858a524660a052865195858701917f8b73c3c69bb8fe3d512ecc4cf759cc79239f7b179b0ffacaa9a75d522b39400f83528888015260608701524660808701523060a087015260a0865260c0860192868410908411176200039257828752855190206080523060c052600e5581549360ff8560081c166200033f57505060ff8084160362000305575b50505051916159c893846200094f853960805184612f4b015260a05184613006015260c05184612f15015260e05184612f9a01525183612fc001525182611581015251816115ab0152f35b60ff7f7f26b83ff96e1f2b6a682f133852f6798a09c465da95921460cefb384740249893811916179055825160ff8152a1388080620002ba565b9066616c697a696e6760c81b6101246084938662461bcd60e51b855260c4820152602760e48201527f496e697469616c697a61626c653a20636f6e747261637420697320696e6974696101048201520152fd5b634e487b7160e01b84526041600452602484fd5b015190503880620001e8565b600687528787208994509190601f198416885b8a828210620004015750508411620003e7575b505050811b01600655620001fd565b015160001960f88460031b161c19169055388080620003d8565b8385015186558c97909501949384019301620003c5565b9091929350600688528888209084808701821c8301938b881062000465575b9187968d93969594929601901c01915b828110620004565750620001d2565b8981558695508b910162000447565b9350829362000437565b634e487b7160e01b88526022600452602488fd5b91607f1691620001bb565b634e487b7160e01b87526041600452602487fd5b0151905038806200018a565b868a528a8a208c94509190601f1984168b5b8d828210620004fb5750508411620004e1575b505050811b0183556200019e565b015160001960f88460031b161c19169055388080620004d3565b8385015186558f97909501949384019301620004c0565b90915085895289892085808501881c8201928c861062000559575b918d918695949301891c01915b8281106200054a57505062000174565b8b81558594508d91016200053a565b925081926200052d565b93607f16936200015d565b634e487b7160e01b86526041600452602486fd5b600080fd5b604081019081106001600160401b03821117620005a357604052565b634e487b7160e01b600052604160045260246000fd5b805160209081811015620006565750601f825111620005f55780825192015190808310620005e657501790565b82600019910360031b1b161790565b90604051809263305a27a960e01b82528060048301528251908160248401526000935b8285106200063c575050604492506000838284010152601f80199101168101030190fd5b848101820151868601604401529381019385935062000618565b906001600160401b038211620005a357600754926001938481811c911680156200078b575b838210146200077557601f81116200073b575b5081601f8411600114620006cf5750928293918392600094620006c3575b50501b916000199060031b1c19161760075560ff90565b015192503880620006ac565b919083601f198116600760005284600020946000905b8883831062000720575050501062000706575b505050811b0160075560ff90565b015160001960f88460031b161c19169055388080620006f8565b858701518855909601959485019487935090810190620006e5565b600760005284601f84600020920160051c820191601f860160051c015b828110620007685750506200068e565b6000815501859062000758565b634e487b7160e01b600052602260045260246000fd5b90607f16906200067b565b805160209081811015620008245750601f825111620007c35780825192015190808310620005e657501790565b90604051809263305a27a960e01b82528060048301528251908160248401526000935b8285106200080a575050604492506000838284010152601f80199101168101030190fd5b8481018201518686016044015293810193859350620007e6565b906001600160401b038211620005a357600854926001938481811c9116801562000943575b838210146200077557601f811162000909575b5081601f84116001146200089d575092829391839260009462000891575b50501b916000199060031b1c19161760085560ff90565b0151925038806200087a565b919083601f198116600860005284600020946000905b88838310620008ee5750505010620008d4575b505050811b0160085560ff90565b015160001960f88460031b161c19169055388080620008c6565b858701518855909601959485019487935090810190620008b3565b600860005284601f84600020920160051c820191601f860160051c015b828110620009365750506200085c565b6000815501859062000926565b90607f16906200084956fe6080604052600436101561001257600080fd5b60003560e01c806306fdde031461041d578063095ea7b31461035a5780630f56b96c14610418578063144fa6d71461041357806318160ddd146103785780631be195601461040e5780631f8d1d501461040957806323b872dd14610404578063276801ec146103ff5780632ddbd13a146103fa578063313ce567146103f55780633644e515146103f057806339509351146103eb5780633a46b1a8146103e65780633cf3a025146103e157806344faf486146103dc57806349590657146103d75780634bf5d7e9146103d2578063587cde1e146103cd5780635c19a95c146103c8578063684de1f5146103c35780636fcfff45146103be57806370a08231146103b9578063715018a6146103b457806375aa9bc6146103af57806375f620ac146103aa5780637cb64759146103a55780637ecebe00146103a05780637f0037f11461039b57806384b0196e146103965780638da5cb5b146103915780638e539e8c1461038c57806391ddadf41461038757806395d89b41146103825780639691cab51461037d5780639a0e7d66146103785780639ab24eb0146103735780639b642de11461036e578063a3f4df7e14610369578063a457c2d714610364578063a4ef1f781461035f578063a9059cbb1461035a578063ab803a7614610355578063b6d8f79f14610350578063bb22dccb1461034b578063c3cda52014610346578063c6e8d98214610341578063c78d59851461033c578063c955725514610337578063d505accf14610332578063d972e8ad1461032d578063dc2f511b14610328578063dd62ed3e14610323578063de032f581461031e578063e12f3a6114610319578063e49248d514610314578063e834a8341461030f578063e85858d91461030a578063e90a182f14610305578063eac989f814610300578063f1127ed8146102fb578063f2fde38b146102f6578063f56c8547146102f1578063fc0c546a146102ec5763ffa1ad74146102e757600080fd5b61250f565b6124e6565b6124bd565b61242c565b6123ac565b612315565b612269565b6121b3565b612195565b612143565b61211c565b6120ef565b61208c565b611faa565b611f3a565b611dfa565b611dae565b611d85565b611d5c565b611c2d565b611be4565b611bb9565b611b5e565b610582565b611b37565b611a94565b611a36565b6118f8565b611895565b610669565b611855565b6117ac565b611780565b61168c565b61165f565b611566565b611393565b611356565b61130a565b6112e3565b6110ea565b61108a565b61104d565b611002565b610f5b565b610f05565b610ec6565b610e14565b610df6565b610d57565b610ae3565b61098a565b6108f4565b6108d1565b6108b5565b610897565b61086e565b6107cc565b610780565b610687565b6105c1565b6105a3565b61047e565b60005b8381106104355750506000910152565b8181015183820152602001610425565b9060209161045e81518092818552858086019101610422565b601f01601f1916010190565b90602061047b928181520190610445565b90565b3461055d5760008060031936011261055a57604051816005546104a0816122db565b90818452602092600191828116908160001461053857506001146104df575b6104db856104cf81890382610bd9565b6040519182918261046a565b0390f35b929450600583527f036b6384b5eca791c62761152d0c79bb0604c104a5fb6f4eb0703f3154bb3db05b82841061052557505050816104db936104cf9282010193386104bf565b8054858501870152928501928101610508565b60ff191686860152505050151560051b82010191506104cf816104db386104bf565b80fd5b600080fd5b6001600160a01b0381160361055d57565b60e4359061058082610562565b565b3461055d57604036600319011261055d5761059e600435610562565b6125e4565b3461055d57600036600319011261055d576020601454604051908152f35b3461055d57602036600319011261055d576004356105de81610562565b6105e661252b565b6001600160a01b0316801561062e57601080546001600160a01b031916821790557fefc1fd16ea80a922086ee4e995739d59b025c1bcea6d1f67855747480c83214b600080a2005b60405162461bcd60e51b8152602060048201526013602482015272746f6b656e206973206164647265737328302960681b6044820152606490fd5b3461055d57600036600319011261055d576020600454604051908152f35b3461055d57602036600319011261055d576004356106a481610562565b6106ac61252b565b6040516370a0823160e01b81523060048201526001600160a01b0382169190602081602481865afa801561077b577ff4a44a7f605c4971a27bcecb448108e6328b7fad34fab5bff4f69377294b826d9261074292600092610747575b5060015461073291839161072c906001600160a01b03165b6001600160a01b031690565b90614a07565b6040519081529081906020820190565b0390a2005b61073291925061076d9060203d8111610774575b6107658183610bd9565b810190613650565b9190610708565b503d61075b565b612e84565b3461055d57602036600319011261055d577fac657d3615bd618ee537848e2b33acd2a9df67d4776485ab6922b0421d324d2960206004356107bf61252b565b80601155604051908152a1005b3461055d57606036600319011261055d576004356107e981610562565b6107f4602435610562565b6001600160a01b0316600090815260036020908152604080832033845290915290205460018101156125e45760443511156125e45760405162461bcd60e51b815260206004820152601d60248201527f45524332303a20696e73756666696369656e7420616c6c6f77616e63650000006044820152606490fd5b3461055d57600036600319011261055d576017546040516001600160a01b039091168152602090f35b3461055d57600036600319011261055d576020601154604051908152f35b3461055d57600036600319011261055d57602060405160128152f35b3461055d57600036600319011261055d5760206108ec612f12565b604051908152f35b3461055d57604036600319011261055d5761093960043561091481610562565b33600052600360205260406000209060018060a01b0316600052602052604060002090565b546024358101106109855760405162461bcd60e51b81526020600482015260196024820152783234b9b0b13632b2103337b9103b37ba34b733903837bbb2b960391b6044820152606490fd5b612625565b3461055d57604036600319011261055d576004356109a781610562565b602435906109c665ffffffffffff6109be4361343b565b16831061270b565b6001600160a01b03166000908152600c6020526040812080549290918360058111610a92575b50905b838210610a3d57505081610a16575050602060005b6040516001600160e01b039091168152f35b610a31610a3891602093600019019060005260206000200190565b5460201c90565b610a04565b9092610a49818561326b565b90818363ffffffff610a6f610a65848960005260206000200190565b5463ffffffff1690565b161115610a80575050925b906109ef565b909450610a8d915061263b565b610a7a565b80610aa2610aa892969396613280565b90612757565b908263ffffffff610ac3610a65858860005260206000200190565b161115610ad35750925b386109ec565b9350610ade9061263b565b610acd565b3461055d57602036600319011261055d57600435610aff61252b565b7f3b381fdfc0e2729a70e8b26ae2397e9014f703a8235b557f5581c4ed47280fd26020600092610b48848080808560018060a01b03600154165af1610b42613f17565b506158ad565b604051908152a180f35b634e487b7160e01b600052604160045260246000fd5b604081019081106001600160401b03821117610b8357604052565b610b52565b606081019081106001600160401b03821117610b8357604052565b602081019081106001600160401b03821117610b8357604052565b60c081019081106001600160401b03821117610b8357604052565b90601f801991011681019081106001600160401b03821117610b8357604052565b6040519061058082610b68565b6040519061058082610b88565b6001600160401b038111610b8357601f01601f191660200190565b81601f8201121561055d57803590610c4682610c14565b92610c546040519485610bd9565b8284526020838301011161055d57816000926020809301838601378301015290565b6001600160401b038111610b835760051b60200190565b35906001600160801b038216820361055d57565b9080601f8301121561055d578135916020610cbb84610c76565b93604093610ccb85519687610bd9565b818652828087019260061b8501019381851161055d578301915b848310610cf55750505050505090565b858383031261055d578386918251610d0c81610b68565b610d1586610c8d565b8152610d22838701610c8d565b83820152815201920191610ce5565b8015150361055d57565b610104359061058082610d31565b610124359061058082610562565b3461055d5761014036600319011261055d57600435610d7581610562565b6001600160401b039060443582811161055d57610d96903690600401610c2f565b9060643592831161055d57610db2610df4933690600401610ca1565b9060a435610dbf81610562565b60c43590610dcc82610562565b610dd4610573565b92610ddd610d3b565b94610de6610d49565b966084359260243590613507565b005b3461055d57600036600319011261055d576020601a54604051908152f35b3461055d57600036600319011261055d574365ffffffffffff610e364361343b565b1603610e81576104db604051610e4b81610b68565b601d81527f6d6f64653d626c6f636b6e756d6265722666726f6d3d64656661756c7400000060208201526040519182918261046a565b60405162461bcd60e51b815260206004820152601d60248201527f4552433230566f7465733a2062726f6b656e20636c6f636b206d6f64650000006044820152606490fd5b3461055d57602036600319011261055d576020600435610ee581610562565b60018060a01b03809116600052600b825260406000205416604051908152f35b3461055d57602036600319011261055d57610df4600435610f2581610562565b336127b0565b9181601f8401121561055d578235916001600160401b03831161055d576020808501948460051b01011161055d57565b3461055d57608036600319011261055d57602435610f7881610562565b604435606435916001600160401b03831161055d57610ffd610ff7610fa4610df4953690600401610f2b565b91906040516020810190610fec81610fde8a8a60043587916054939183526001600160601b03199060601b16602083015260348201520190565b03601f198101835282610bd9565b519020923691613e7d565b90614ff2565b6141f8565b3461055d57602036600319011261055d5760043561101f81610562565b60018060a01b0316600052600c602052602061103f6040600020546134a2565b63ffffffff60405191168152f35b3461055d57602036600319011261055d5760043561106a81610562565b60018060a01b031660005260026020526020604060002054604051908152f35b3461055d5760008060031936011261055a576110a461252b565b805462010000600160b01b031981168255819060101c6001600160a01b03167f8be0079c531659141344cd1fd0a4f28419497f9722a3daafe3b4186f6b6457e08280a380f35b3461055d57604036600319011261055d5760043561110781610562565b7fd81661cef4e40e0f1f97384c033d606e4d6b570554fc3524568d8f9fc84c83886107426024359261113761252b565b6001600160a01b0381166000908152600f602052604090206111589061432b565b61116a6111658251151590565b614885565b60008513156112d557845b6001600160781b03916111898383106148e1565b600087121561128557611262926111e86111e384611242946111de826111d76111cb6020601154956111bd85881015614948565b01516001600160781b031690565b6001600160781b031690565b10156149a4565b612757565b601155565b6001600160a01b0385166000908152600f602052604090206112219091841661121c83546001600160781b039060081c1690565b614362565b610100600160801b0382549160081b1690610100600160801b031916179055565b6010546001600160a01b031660005460101c6001600160a01b031661072c565b61126b8161437b565b6040519384526001600160a01b0316929081906020820190565b506112216112d09261129c6111e384601154612649565b6001600160a01b0385166000908152600f6020526040902092166112cb83546001600160781b039060081c1690565b61492d565b611262565b6112de856148d0565b611175565b3461055d57602036600319011261055d5760206108ec60043561130581610562565b61412b565b3461055d57602036600319011261055d577f914960aef5e033ce5cae8a7992d4b7a6f0f9741227b66acb67c605b7019f8a46602060043561134961252b565b80601a55604051908152a1005b3461055d57602036600319011261055d5760043561137381610562565b60018060a01b031660005260096020526020604060002054604051908152f35b60c036600319011261055d576024356113ab81610562565b604435906064356001600160401b03811161055d576113ce903690600401610f2b565b9261141e608435946113df86610562565b610ff760a435946040516020810190610fec81610fde898c60043587916054939183526001600160601b03199060601b16602083015260348201520190565b6002600e5414611521576002600e55601b54600490602090611448906001600160a01b0316610720565b60405163163f21bd60e01b815292839182905afa92831561077b576114e9956114d16114ca6114d7936114c46114be6114e3996114dd986000916114f3575b506001600160a01b0316926114b981670de0b6b3a76400006114b16114ab8861412b565b34613694565b041015613ecb565b613677565b9161412b565b90613261565b8092613f47565b34612757565b33613f47565b8261475d565b90614dde565b610df46001600e55565b611514915060203d811161151a575b61150c8183610bd9565b81019061363b565b38611487565b503d611502565b60405162461bcd60e51b815260206004820152601f60248201527f5265656e7472616e637947756172643a207265656e7472616e742063616c6c006044820152606490fd5b3461055d5760008060031936011261055a57611603906115a57f0000000000000000000000000000000000000000000000000000000000000000613052565b906115cf7f0000000000000000000000000000000000000000000000000000000000000000613148565b90604051916115dd83610ba3565b818352611611602091604051968796600f60f81b885260e08589015260e0880190610445565b908682036040880152610445565b904660608601523060808601528260a086015284820360c08601528080855193848152019401925b82811061164857505050500390f35b835185528695509381019392810192600101611639565b3461055d57600036600319011261055d5760005460405160109190911c6001600160a01b03168152602090f35b3461055d57602036600319011261055d576004356116bb65ffffffffffff6116b34361343b565b16821061270b565b600d54906000826005811161173d575b50905b8282106116fa5782806116e8575060405160008152602090f35b610a38610a3160209260001901612cff565b9091611706818461326b565b90818363ffffffff61171a610a6584612cff565b16111561172b575050915b906116ce565b909350611738915061263b565b611725565b80610aa261174d92959395613280565b908263ffffffff611760610a6585612cff565b1611156117705750915b386116cb565b925061177b9061263b565b61176a565b3461055d57600036600319011261055d57602061179c4361343b565b65ffffffffffff60405191168152f35b3461055d5760008060031936011261055a57604051816006546117ce816122db565b90818452602092600191828116908160001461053857506001146117fc576104db856104cf81890382610bd9565b929450600683527ff652222313e28459528d920b65115c16c04f3efc82aaedc97be59f3f377c0d3f5b82841061184257505050816104db936104cf9282010193386104bf565b8054858501870152928501928101611825565b3461055d57602036600319011261055d576004356001600160401b03811161055d57611888610df4913690600401610ca1565b61189061252b565b61575f565b3461055d57602036600319011261055d576004356118b281610562565b6001600160a01b03166000908152600c602052604090208054806118de57505060405160008152602090f35b6020916118ef9160001901906126d1565b5054811c610a04565b3461055d5760208060031936011261055d576001600160401b0360043581811161055d5761192a903690600401610c2f565b9161193361252b565b8251918211610b83576119508261194b6013546122db565b614bb9565b80601f83116001146119be57508190611980936000926119b3575b50508160011b916000199060031b1c19161790565b6013555b61198c614ce5565b7fd70c1392a974224e639e7a9607dcb2c766826aecfe2dc356f442ce0488b01e1f600080a2005b01519050388061196b565b90601f198316936119df601360005260008051602061595383398151915290565b926000905b868210611a1e5750508360019510611a05575b505050811b01601355611984565b015160001960f88460031b161c191690553880806119f7565b806001859682949686015181550195019301906119e4565b3461055d57600036600319011261055d576104db604051611a5681610b68565b601f81527f5472616e63686556657374696e674d65726b6c654469737472696275746f72006020820152604051918291602083526020830190610445565b3461055d57604036600319011261055d57600435611ab181610562565b336000526003602052611add6024359160406000209060018060a01b0316600052602052604060002090565b5410156125e45760405162461bcd60e51b815260206004820152602560248201527f45524332303a2064656372656173656420616c6c6f77616e63652062656c6f77604482015264207a65726f60d81b6064820152608490fd5b3461055d57602036600319011261055d5760206108ec600435611b5981610562565b614f21565b3461055d5760008060031936011261055a57611b7861252b565b7f3b381fdfc0e2729a70e8b26ae2397e9014f703a8235b557f5581c4ed47280fd2602047610b48848080808560018060a01b03600154165af1610b42613f17565b3461055d57604036600319011261055d5760206108ec600435611bdb81610562565b60243590615435565b3461055d57602036600319011261055d57611c00600435610562565b6020601854604051908152f35b6064359060ff8216820361055d57565b6084359060ff8216820361055d57565b3461055d5760c036600319011261055d57600435611c4a81610562565b60443590602435611c59611c0d565b92804211611d1757611ce9611d1291610df49560405190611cd182611cc36020820195898b8860609194939260808201957fe48329057bfd03d55e49b547132e39cffd9c1820ad7b9d4c5307691425d15adf835260018060a01b0316602083015260408201520152565b03601f198101845283610bd9565b611ce460a435936084359351902061302c565b612d29565b6001600160a01b0381166000908152600960205260409020805460018101909155909214612764565b6127b0565b60405162461bcd60e51b815260206004820152601d60248201527f4552433230566f7465733a207369676e617475726520657870697265640000006044820152606490fd5b3461055d57600036600319011261055d576015546040516001600160a01b039091168152602090f35b3461055d57600036600319011261055d576001546040516001600160a01b039091168152602090f35b3461055d57602036600319011261055d577f6c339c0bee516a4df5d7074ba7a974856d609f83666e915aa4a0f90e06989dc56020600435611ded61252b565b80601855604051908152a1005b3461055d5760e036600319011261055d57600435611e1781610562565b60243590611e2482610562565b60643591611e30611c1d565b90834211611ef55761059e93611ee292611ecf611e688660018060a01b03166000526009602052604060002090815491600183019055565b611cc36040519485926020840197604435908b8a91959493909260a09360c08401977f6e71edae12b1b97f4d1f60370fef10105fa2faae0126114a169c64845d6126c98552600180871b038092166020860152166040840152606083015260808201520152565b611ce460c4359360a4359351902061302c565b6001600160a01b03908116911614612656565b60405162461bcd60e51b815260206004820152601d60248201527f45524332305065726d69743a206578706972656420646561646c696e650000006044820152606490fd5b3461055d57602036600319011261055d57600435611f566126a2565b50601954811015611fa557611f816040916019600052600080516020615973833981519152016154bb565b611fa382518092602090816001600160801b0391828151168552015116910152565bf35b6126bb565b3461055d5760008060031936011261055a5760195490611fc982610c76565b91604091611fd983519485610bd9565b818452601981526020938481019282600080516020615973833981519152855b8383106120645750505050835194859481860192828752518093528086019493905b8382106120285786860387f35b9184965082866120546001949698849851602090816001600160801b0391828151168552015116910152565b019601920186959492939161201b565b6001898192612078859c99989a9b9c6154bb565b815201920192019190979695939497611ff9565b3461055d57604036600319011261055d5760206120e66004356120ae81610562565b602435906120bb82610562565b60018060a01b03166000526003835260406000209060018060a01b0316600052602052604060002090565b54604051908152f35b3461055d57602036600319011261055d57610df460043561210f81610562565b61211761252b565b6158ec565b3461055d57602036600319011261055d5760206108ec60043561213e81610562565b614e24565b3461055d57606036600319011261055d5760243561217161216960443561130581610562565b600435613694565b90604d811161098557600a0a9081156121905760209160405191048152f35b61324b565b3461055d57600036600319011261055d576020601254604051908152f35b3461055d57602036600319011261055d576104db6004356121d381610562565b60409060008280516121e481610b88565b828152826020820152015260018060a01b0316600052600f602052806000209080519161221083610b88565b5460ff8116151583526001600160781b0390818160081c16602085015260801c1681830152519182918291909160406060820193805115158352816020820151916001600160781b038093166020860152015116910152565b3461055d57604036600319011261055d5760043561228681610562565b7ff4a44a7f605c4971a27bcecb448108e6328b7fad34fab5bff4f69377294b826d6020602435926122b561252b565b6001546001600160a01b0391906122d0908690841683614a07565b6040519485521692a2005b90600182811c9216801561230b575b60208310146122f557565b634e487b7160e01b600052602260045260246000fd5b91607f16916122ea565b3461055d5760008060031936011261055a5760405181601354612337816122db565b9081845260209260019182811690816000146105385750600114612365576104db856104cf81890382610bd9565b929450601383526000805160206159538339815191525b82841061239957505050816104db936104cf9282010193386104bf565b805485850187015292850192810161237c565b3461055d57604036600319011261055d576004356123c981610562565b63ffffffff602435818116810361055d5761240861240e916040946123ec6126a2565b506001600160a01b03166000908152600c6020528590206126d1565b506126e9565b8251815190921682526020908101516001600160e01b031690820152f35b3461055d57602036600319011261055d5760043561244981610562565b61245161252b565b6001600160a01b0381161561246957610df490612586565b60405162461bcd60e51b815260206004820152602660248201527f4f776e61626c653a206e6577206f776e657220697320746865207a65726f206160448201526564647265737360d01b6064820152608490fd5b3461055d57600036600319011261055d576016546040516001600160a01b039091168152602090f35b3461055d57600036600319011261055d576010546040516001600160a01b039091168152602090f35b3461055d57600036600319011261055d57602060405160048152f35b60005460101c6001600160a01b0316330361254257565b606460405162461bcd60e51b815260206004820152602060248201527f4f776e61626c653a2063616c6c6572206973206e6f7420746865206f776e65726044820152fd5b6000805462010000600160b01b03198116601084811b62010000600160b01b03169190911783556001600160a01b039384169391901c16907f8be0079c531659141344cd1fd0a4f28419497f9722a3daafe3b4186f6b6457e09080a3565b60405162461bcd60e51b81526020600482015260196024820152783234b9b0b13632b2103337b9103b37ba34b733903837bbb2b960391b6044820152606490fd5b634e487b7160e01b600052601160045260246000fd5b906001820180921161098557565b9190820180921161098557565b1561265d57565b60405162461bcd60e51b815260206004820152601e60248201527f45524332305065726d69743a20696e76616c6964207369676e617475726500006044820152606490fd5b604051906126af82610b68565b60006020838281520152565b634e487b7160e01b600052603260045260246000fd5b8054821015611fa55760005260206000200190600090565b906040516126f681610b68565b602081935463ffffffff81168352811c910152565b1561271257565b60405162461bcd60e51b815260206004820152601960248201527f4552433230566f7465733a20667574757265206c6f6f6b7570000000000000006044820152606490fd5b9190820391821161098557565b1561276b57565b60405162461bcd60e51b815260206004820152601960248201527f4552433230566f7465733a20696e76616c6964206e6f6e6365000000000000006044820152606490fd5b6105809160018060a01b03809216600092818452600b60205280604085205416809260026020527f3134e8a2e6d97e929a7e54011ea5485d7d196dd5f0ba4d4ef95803e8e3fc257f604087205496600b6020526040812094871694856001600160601b0360a01b82541617905580a45b6001600160a01b03808316939291168084141580612a33575b612844575b50505050565b806128b2575b5082612857575b8061283e565b6001600160a01b03166000908152600c602052604090207fdec2bacdd2f05b59de34da9b523dff8be42e5e38e818c82fdb0bae774387a7249161289991612afd565b60408051928352602083019190915290a2388080612851565b80600052600c6020527fdec2bacdd2f05b59de34da9b523dff8be42e5e38e818c82fdb0bae774387a7246040600020805480159182600014612a10576128f6610bfa565b6000815260006020820152915b6020830151612922906001600160e01b03165b6001600160e01b031690565b9261292d8985615938565b941590816129ed575b501561298b5761295e6129759261294c866133d2565b92600019019060005260206000200190565b9063ffffffff82549181199060201b169116179055565b604080519182526020820192909252a23861284a565b506129e8906129af6129aa61299f4361343b565b65ffffffffffff1690565b6134a2565b906129e36129bc866133d2565b6129d36129c7610bfa565b63ffffffff9095168552565b6001600160e01b03166020840152565b612aa3565b612975565b5163ffffffff16905063ffffffff612a0761299f4361343b565b91161438612936565b612a2d612a2860001984018360005260206000200190565b6126e9565b91612903565b50821515612839565b600d5490600160401b821015610b83576001820180600d55821015611fa557600d600052805160209182015190911b63ffffffff191663ffffffff91909116177fd7b6990105719101dabeb77144f2a3385c8033acd3af97e9423a695e81ad1eb590910155565b8054600160401b811015610b8357612ac0916001820181556126d1565b612ae757815160209283015190921b63ffffffff191663ffffffff92909216919091179055565b634e487b7160e01b600052600060045260246000fd5b909181549182159283600014612b9957612b15610bfa565b60008152600060208201525b6020810151612b4390612b3c906001600160e01b0316612916565b9687615945565b94159081612b76575b5015612b625761295e6105809261294c866133d2565b50610580906129af6129aa61299f4361343b565b5163ffffffff16905063ffffffff612b9061299f4361343b565b91161438612b4c565b612bb1612a2860001983018460005260206000200190565b612b21565b600d5490918115918215612c9157612bcc610bfa565b60008152600060208201525b6020810151612bfa90612bf3906001600160e01b0316612916565b9586615945565b93159081612c6e575b5015612c23576105809061295e612c19856133d2565b9160001901612cff565b50610580612c366129aa61299f4361343b565b612c69612c42856133d2565b612c59612c4d610bfa565b63ffffffff9094168452565b6001600160e01b03166020830152565b612a3c565b5163ffffffff16905063ffffffff612c8861299f4361343b565b91161438612c03565b612ca1612a286000198301612cff565b612bd8565b600d5490918115918215612cea57612cbc610bfa565b60008152600060208201525b6020810151612bfa90612ce3906001600160e01b0316612916565b9586615938565b612cfa612a286000198301612cff565b612cc8565b600d6000527fd7b6990105719101dabeb77144f2a3385c8033acd3af97e9423a695e81ad1eb50190565b9161047b9391612d3893612e90565b919091612d60565b60051115612d4a57565b634e487b7160e01b600052602160045260246000fd5b612d6981612d40565b80612d715750565b612d7a81612d40565b60018103612dcb5760405162461bcd60e51b815260206004820152601860248201527f45434453413a20696e76616c6964207369676e617475726500000000000000006044820152606490fd5b0390fd5b612dd481612d40565b60028103612e215760405162461bcd60e51b815260206004820152601f60248201527f45434453413a20696e76616c6964207369676e6174757265206c656e677468006044820152606490fd5b80612e2d600392612d40565b14612e3457565b60405162461bcd60e51b815260206004820152602260248201527f45434453413a20696e76616c6964207369676e6174757265202773272076616c604482015261756560f01b6064820152608490fd5b6040513d6000823e3d90fd5b9291907f7fffffffffffffffffffffffffffffff5d576e7357a4501ddfe92f46681b20a08311612f065791608094939160ff602094604051948552168484015260408301526060820152600093849182805260015afa1561077b5781516001600160a01b03811615612f00579190565b50600190565b50505050600090600390565b307f00000000000000000000000000000000000000000000000000000000000000006001600160a01b03161480613003575b15612f6d577f000000000000000000000000000000000000000000000000000000000000000090565b60405160208101907f8b73c3c69bb8fe3d512ecc4cf759cc79239f7b179b0ffacaa9a75d522b39400f82527f000000000000000000000000000000000000000000000000000000000000000060408201527f000000000000000000000000000000000000000000000000000000000000000060608201524660808201523060a082015260a08152612ffd81610bbe565b51902090565b507f00000000000000000000000000000000000000000000000000000000000000004614612f44565b604290613037612f12565b906040519161190160f01b8352600283015260228201522090565b60ff811461308c5760ff811690601f821161307a5761306f613200565b918252602082015290565b604051632cd44ac360e21b8152600490fd5b5060405160075481600061309f836122db565b80835260209360019081811690811561312857506001146130c9575b505061047b92500382610bd9565b9093915060076000527fa66cc928b5edb82af9bd49922954155ab7b0942694bea4ce44661d9a8736c688936000915b81831061311057505061047b935082010138806130bb565b855487840185015294850194869450918301916130f8565b91505061047b94925060ff191682840152151560051b82010138806130bb565b60ff81146131655760ff811690601f821161307a5761306f613200565b50604051600854816000613178836122db565b80835260209360019081811690811561312857506001146131a157505061047b92500382610bd9565b9093915060086000527ff3f7a9fe364faab93b216da50a3214154f22a0a2b415b23a84c8169e8b636ee3936000915b8183106131e857505061047b935082010138806130bb565b855487840185015294850194869450918301916131d0565b6040519061320d82610b68565b60208083523683820137565b9061322382610c14565b6132306040519182610bd9565b8281528092613241601f1991610c14565b0190602036910137565b634e487b7160e01b600052601260045260246000fd5b8115612190570490565b90808216911860011c81018091116109855790565b80156133ba578061335361334c61334261333861332e61332461331a613310600161047b9a6000908b60801c806133ae575b508060401c806133a1575b508060201c80613394575b508060101c80613387575b508060081c8061337a575b508060041c8061336d575b508060021c80613360575b50821c613359575b811c1b613309818b613261565b0160011c90565b613309818a613261565b6133098189613261565b6133098188613261565b6133098187613261565b6133098186613261565b6133098185613261565b8092613261565b906133c0565b81016132fc565b60029150910190386132f4565b60049150910190386132e9565b60089150910190386132de565b60109150910190386132d3565b60209150910190386132c8565b60409150910190386132bd565b915050608090386132b2565b50600090565b90808210156133cd575090565b905090565b6001600160e01b03908181116133e6571690565b60405162461bcd60e51b815260206004820152602760248201527f53616665436173743a2076616c756520646f65736e27742066697420696e20326044820152663234206269747360c81b6064820152608490fd5b65ffffffffffff9081811161344e571690565b60405162461bcd60e51b815260206004820152602660248201527f53616665436173743a2076616c756520646f65736e27742066697420696e203460448201526538206269747360d01b6064820152608490fd5b63ffffffff908181116134b3571690565b60405162461bcd60e51b815260206004820152602660248201527f53616665436173743a2076616c756520646f65736e27742066697420696e203360448201526532206269747360d01b6064820152608490fd5b979593919896949290986000549960ff8b60081c1615809b819c61362d575b811561360d575b50156135b157613553998b61354a600160ff196000541617600055565b61359857613761565b61355957565b61356961ff001960005416600055565b604051600181527f7f26b83ff96e1f2b6a682f133852f6798a09c465da95921460cefb384740249890602090a1565b6135ac61010061ff00196000541617600055565b613761565b60405162461bcd60e51b815260206004820152602e60248201527f496e697469616c697a61626c653a20636f6e747261637420697320616c72656160448201526d191e481a5b9a5d1a585b1a5e995960921b6064820152608490fd5b303b1591508161361f575b503861352d565b6001915060ff161438613618565b600160ff8216109150613526565b9081602091031261055d575161047b81610562565b9081602091031261055d575190565b600181901b91906001600160ff1b0381160361098557565b90670de0b6b3a76400009182810292818404149015171561098557565b8181029291811591840414171561098557565b9081602091031261055d575161047b81610d31565b906105806021604051846136da829651809260208086019101610422565b8101600160fd1b6020820152036001810185520183610bd9565b60206105809193929360405194816137158793518092868087019101610422565b820161372982518093868085019101610422565b01038085520183610bd9565b1561373d5750565b60405162461bcd60e51b815260206004820152908190612dc7906024830190610445565b946137b094613789888461378e94613793979b969e9860018060a01b039c8d8716938d61509e565b614fb0565b612586565b60018060a01b03166001600160601b0360a01b601b541617601b55565b601b546137c5906001600160a01b0316610720565b92604092835196878096630e9ed68b60e01b82526020998a916004998a915afa90811561077b57600091613b7e575b50855163b31c878160e01b81523388820190815290918a9183919082900360200190829087165afa801561077b578991600091613b61575b508015613b59575b6138416138499184613694565b612710900490565b9715613b0a57508161385b8883612649565b8651636eb1769f60e11b8082526001600160a01b0387168a8301908152306020820152979093169690949293919291908b908690819060400103818a5afa94851561077b57600095613aeb575b506138ba6138b58b613b9b565b6136bc565b88519485526001600160a01b0387168a86019081523060208201529093908c908690819060400103818b5afa90811561077b576139729661392d613939968f988f976139278d916139206138b56139349a8f9661392797600092613ace575b5050613b9b565b9216613cde565b906136f4565b9114613735565b612649565b85516323b872dd60e01b8082526001600160a01b0390951688820190815230602082015260408101929092529283918291606090910190565b03816000875af1801561077b57613ab1575b50825163095ea7b360e01b8152308582019081526020810187905290919087908390819060400103816000875af191821561077b578592613a94575b50601b5487906139d8906001600160a01b0316610720565b85516301332c8360e61b815296879182905afa93841561077b578795600095613a6c575b5051908152309181019182526001600160a01b03909316602082015260408101949094529092839190829060009082906060015b03925af1801561077b57613a43575b5050565b81613a6292903d10613a65575b613a5a8183610bd9565b8101906136a7565b50565b503d613a50565b600092919550613a8b613a3091883d8a1161151a5761150c8183610bd9565b959192506139fc565b613aaa90883d8a11613a6557613a5a8183610bd9565b50386139c0565b613ac790873d8911613a6557613a5a8183610bd9565b5038613984565b613ae49250803d10610774576107658183610bd9565b8f80613919565b613b039195508b3d8d11610774576107658183610bd9565b93386138a8565b94516323b872dd60e01b81526001600160a01b03909316958301958652503060208601526040850195909552939192849283916000919083906060010393165af1801561077b57613a43575050565b506064613834565b613b789150823d8411610774576107658183610bd9565b3861382c565b613b959150893d8b1161151a5761150c8183610bd9565b386137f4565b806000917a184f03e93ff9f4daa797ed6e38ed64bf6a1f01000000000000000080821015613cd0575b506d04ee2d6d415b85acef810000000080831015613cc1575b50662386f26fc1000080831015613cb2575b506305f5e10080831015613ca3575b5061271080831015613c94575b506064821015613c84575b600a80921015613c7a575b600190816021613c32828701613219565b95860101905b613c44575b5050505090565b600019019083906f181899199a1a9b1b9c1cb0b131b232b360811b8282061a835304918215613c7557919082613c38565b613c3d565b9160010191613c21565b9190606460029104910191613c16565b60049193920491019138613c0b565b60089193920491019138613bfe565b60109193920491019138613bef565b60209193920491019138613bdd565b604093508104915038613bc4565b806000908260801c80613df8575b508060401c80613deb575b508060201c80613dde575b5060109080821c80613dd1575b5060081c613dc7575b60018092019291613d288461365f565b6002810180911161098557613d3c90613219565b93845115611fa557613d67613d6c9160306020889796959701536078613d6188613e04565b5361365f565b61263b565b925b808411613d8257505061047b915015613e32565b9091600f81169083821015611fa557613dbf916f181899199a1a9b1b9c1cb0b131b232b360811b901a613db58688613e14565b5360041c93613e25565b929190613d6e565b9060010190613d18565b6002915092019138613d0f565b6004915091019038613d02565b6008915091019038613cf7565b91505060109038613cec565b805160011015611fa55760210190565b908151811015611fa5570160200190565b8015610985576000190190565b15613e3957565b606460405162461bcd60e51b815260206004820152602060248201527f537472696e67733a20686578206c656e67746820696e73756666696369656e746044820152fd5b9291613e8882610c76565b91613e966040519384610bd9565b829481845260208094019160051b810192831161055d57905b828210613ebc5750505050565b81358152908301908301613eaf565b15613ed257565b60405162461bcd60e51b815260206004820152601960248201527f666565207061796d656e742062656c6f77206d696e696d756d000000000000006044820152606490fd5b3d15613f42573d90613f2882610c14565b91613f366040519384610bd9565b82523d6000602084013e565b606090565b814710613fdd576000918291829182916001600160a01b03165af1613f6a613f17565b5015613f7257565b60405162461bcd60e51b815260206004820152603a60248201527f416464726573733a20756e61626c6520746f2073656e642076616c75652c207260448201527f6563697069656e74206d617920686176652072657665727465640000000000006064820152608490fd5b60405162461bcd60e51b815260206004820152601d60248201527f416464726573733a20696e73756666696369656e742062616c616e63650000006044820152606490fd5b519069ffffffffffffffffffff8216820361055d57565b1561404057565b60405162461bcd60e51b815260206004820152600e60248201526d6e6567617469766520707269636560901b6044820152606490fd5b1561407d57565b60405162461bcd60e51b815260206004820152600b60248201526a0616e73776572203d3d20360ac1b6044820152606490fd5b156140b757565b60405162461bcd60e51b8152602060048201526012602482015271726f756e64206e6f7420636f6d706c65746560701b6044820152606490fd5b156140f857565b60405162461bcd60e51b815260206004820152600b60248201526a7374616c6520707269636560a81b6044820152606490fd5b604051633fabe5a360e21b81529060a090829060049082906001600160a01b03165afa801561077b576000809181809161419e575b839450614172600061047b9513614039565b61419669ffffffffffffffffffff8093169361418f851515614076565b15156140b0565b1611156140f1565b9250505060a0823d82116141f0575b816141ba60a09383610bd9565b8101031261055a575061047b6141cf82614022565b60208301516141e5608060608601519501614022565b909384935091614160565b3d91506141ad565b6001600160781b038083116142d157610580921661428a61423e61422e8460018060a01b0316600052600f602052604060002090565b5460801c6001600160781b031690565b61426d614249610c07565b60018152916001600160781b03851660208401526001600160781b03166040830152565b6001600160a01b0384166000908152600f60205260409020614d70565b6040516001600160781b039190911681526001600160a01b038216907fdb598eb8e0a3d3d5c2e02e4cab1ee8b65bb20e48fc7b42f4c76272de4cdd243490602090a261437b565b60405162461bcd60e51b815260206004820152602c60248201527f4469737472696275746f723a20746f74616c416d6f756e74203e20747970652860448201526b0ead2dce8626460525cdac2f60a31b6064820152608490fd5b9060405161433881610b88565b604081935460ff8116151583526001600160781b0390818160081c16602085015260801c16910152565b6001600160781b03918216908216039190821161098557565b6001600160a01b038116600090815260026020908152604080832054600f9092529091209091906143ab9061432b565b6001600160781b0380602081604085015116930151168083101560001461440c5750505060005b808311156143ed576143e79061058093612757565b90614576565b8083106143f957505050565b6105809261440691612757565b90614498565b6144239261441991614362565b1660185490613694565b60145490811561219057046143d2565b1561443a57565b60405162461bcd60e51b815260206004820152603060248201527f4552433230566f7465733a20746f74616c20737570706c79207269736b73206f60448201526f766572666c6f77696e6720766f74657360801b6064820152608490fd5b906001600160a01b03821680156145315760045482810180911161098557613a3f93614516926144c88593600455565b6001600160a01b0382166000908152600260209081526040808320805487019055518581527fddf252ad1be2c89b69c2b068fc378daa952ba7f163c4a11628f55a4df523b3ef9190a36146c4565b60045461452c906001600160e01b031015614433565b612bb6565b60405162461bcd60e51b815260206004820152601f60248201527f45524332303a206d696e7420746f20746865207a65726f2061646472657373006044820152606490fd5b6001600160a01b0381169190821561461e5781816000613a3f95836145b06146199660018060a01b03166000526002602052604060002090565b546145bd8282101561466d565b036145da8460018060a01b03166000526002602052604060002090565b556145e88460045403600455565b6040518481527fddf252ad1be2c89b69c2b068fc378daa952ba7f163c4a11628f55a4df523b3ef90602090a361470f565b612ca6565b60405162461bcd60e51b815260206004820152602160248201527f45524332303a206275726e2066726f6d20746865207a65726f206164647265736044820152607360f81b6064820152608490fd5b1561467457565b60405162461bcd60e51b815260206004820152602260248201527f45524332303a206275726e20616d6f756e7420657863656564732062616c616e604482015261636560f01b6064820152608490fd5b600b6020527fdf7de25b7f1fd6d0b5205f0e18f1f35bd7b8d84cce336588d184533ce43a6f76546001600160a01b039182166000908152604090205461058093929081169116612820565b6001600160a01b039081166000908152600b60205260408120549080527fdf7de25b7f1fd6d0b5205f0e18f1f35bd7b8d84cce336588d184533ce43a6f765461058093929081169116612820565b91906001600160781b0380911660018060a01b038416600052600f602052808260406000205460081c1603614875575b5061479783614e24565b168015614818576001600160a01b0383166000908152600f6020526040902061058091906147fe906147d8836112cb83546001600160781b039060801c1690565b8154600160801b600160f81b03191660809190911b600160801b600160f81b0316179055565b61481261480d82601254612649565b601255565b9261437b565b60405162461bcd60e51b815260206004820152602f60248201527f4469737472696275746f723a206e6f206d6f726520746f6b656e7320636c616960448201526e6d61626c65207269676874206e6f7760881b6064820152608490fd5b61487f90846141f8565b3861478d565b1561488c57565b606460405162461bcd60e51b815260206004820152602060248201527f6d75737420696e697469616c697a65206265666f72652061646a757374696e676044820152fd5b600160ff1b81146109855760000390565b156148e857565b60405162461bcd60e51b815260206004820152601860248201527f61646a7573746d656e74203e206d61782075696e7431323000000000000000006044820152606490fd5b9190916001600160781b038080941691160191821161098557565b1561494f57565b60405162461bcd60e51b815260206004820152602760248201527f64656372656173652067726561746572207468616e206469737472696275746f6044820152661c881d1bdd185b60ca1b6064820152608490fd5b156149ab57565b60405162461bcd60e51b815260206004820152602e60248201527f64656372656173652067726561746572207468616e206469737472696275746960448201526d1bdb949958dbdc99081d1bdd185b60921b6064820152608490fd5b60405163a9059cbb60e01b60208083019182526001600160a01b039490941660248301526044808301959095529381529192614aa092916000908190614a4e606486610bd9565b60018060a01b03169260405194614a6486610b68565b8786527f5361666545524332303a206c6f772d6c6576656c2063616c6c206661696c656488870152519082855af1614a9a613f17565b91614b28565b805190828215928315614b10575b50505015614ab95750565b6084906040519062461bcd60e51b82526004820152602a60248201527f5361666545524332303a204552433230206f7065726174696f6e20646964206e6044820152691bdd081cdd58d8d9595960b21b6064820152fd5b614b2093508201810191016136a7565b388281614aae565b91929015614b8a5750815115614b3c575090565b3b15614b455790565b60405162461bcd60e51b815260206004820152601d60248201527f416464726573733a2063616c6c20746f206e6f6e2d636f6e74726163740000006044820152606490fd5b825190915015614b9d5750805190602001fd5b60405162461bcd60e51b8152908190612dc7906004830161046a565b601f8111614bc5575050565b60009060138252600080516020615953833981519152906020601f850160051c83019410614c0e575b601f0160051c01915b828110614c0357505050565b818155600101614bf7565b9092508290614bee565b9081516001600160401b038111610b8357614c388161194b6013546122db565b602080601f8311600114614c6f57508190614c6a93946000926119b35750508160011b916000199060031b1c19161790565b601355565b90601f19831694614c90601360005260008051602061595383398151915290565b926000905b878210614ccd575050836001959610614cb4575b505050811b01601355565b015160001960f88460031b161c19169055388080614ca9565b80600185968294968601518155019501930190614c95565b604051806000601354614cf7816122db565b90600190818116908115614d595750600114614d16575b505003902090565b601360009081529192506000805160206159538339815191525b838310614d435750505081013880614d0e565b8054868401528594506020909201918101614d30565b60ff19168552505080151502820190503880614d0e565b815181546020840151610100600160801b0360089190911b1691151560ff166fffffffffffffffffffffffffffffffff1990911617178155610580916001600160781b0390604001518254600160801b600160f81b031916911660801b600160801b600160f81b0316179055565b60207f47cee97cb7acd717b3c0aa1435d004cd5b3c8c57d70dbceb4e4458bbd60e39d49160018060a01b0390614e1985828460105416614a07565b6040519485521692a2565b6001600160a01b0381166000908152600f602052604090205460ff1615614ed1576001600160a01b0381166000908152600f60205260409020614e669061432b565b90614eb96040614eaa614ea1614e91614e8960208801516001600160781b031690565b954290615435565b6001600160781b03809616613694565b60145490613261565b9301516001600160781b031690565b16818110614ec8575050600090565b61047b91612757565b60405162461bcd60e51b815260206004820152602260248201527f4469737472696275746f723a20636c61696d206e6f7420696e697469616c697a604482015261195960f21b6064820152608490fd5b6015546001600160a01b0391908216908115614f4857829081806017541691161816041690565b505050600090565b15614f5757565b60405162461bcd60e51b815260206004820152602b60248201527f496e697469616c697a61626c653a20636f6e7472616374206973206e6f74206960448201526a6e697469616c697a696e6760a81b6064820152608490fd5b60207f914960aef5e033ce5cae8a7992d4b7a6f0f9741227b66acb67c605b7019f8a4691614fe560ff60005460081c16614f50565b80601a55604051908152a1565b601a5492600092915b82518410156150495761500e848461508a565b519060008282101561503a575060005260205260406000205b9260001981146109855760010192614ffb565b90604092825260205220615027565b91509291500361505557565b60405162461bcd60e51b815260206004820152600d60248201526c34b73b30b634b210383937b7b360991b6044820152606490fd5b8051821015611fa55760209160051b010190565b939195909492946150bf60ff60005460081c166150ba81614f50565b614f50565b6001600160a01b03916150d39083166158ec565b7f6c339c0bee516a4df5d7074ba7a974856d609f83666e915aa4a0f90e06989dc5602061271080601855604051908152a161511560ff60005460081c16614f50565b818516156151b65761058096615157826111e36118909861513a61515c9615156151fa565b60018060a01b03166001600160601b0360a01b6010541617601055565b614c18565b615167612710601455565b6010547f433127dedcff849792656a12f4a9dbc0efeb80df5cce6310f53481a93cd71c71906001600160a01b031691601154926151ae601454604051938493169583615246565b0390a26152f7565b606460405162461bcd60e51b815260206004820152602060248201527f4469737472696275746f723a20746f6b656e20697320616464726573732830296044820152fd5b1561520157565b60405162461bcd60e51b815260206004820152601760248201527f4469737472696275746f723a20746f74616c20697320300000000000000000006044820152606490fd5b92919083526020606081850152600060135491615262836122db565b9081606088015260809360019081811690816000146152d65750600114615290575b50505060409150930152565b6013600090815293506000805160206159538339815191525b8385106152c3575050505090604091850101388080615284565b80548986018701529382019381016152a9565b92505050604093925060ff191682870152151560051b850101388080615284565b9061530960ff60005460081c16614f50565b601680546001600160a01b039384166001600160a01b031991821681179092559092831560008161537c575061219057837fdccb8d94a5bbd764ed844afa20f2581be18d3fa84b36855e86a8f0c9316cba7d928261058096602094045b16906015541617601555604051908152a16153ad565b610580959150926020927fdccb8d94a5bbd764ed844afa20f2581be18d3fa84b36855e86a8f0c9316cba7d94615366565b6015546001600160a01b039190821615613a3f57818116156153f0576000194301438111610985578290401618166001600160601b0360a01b6017541617601755565b60405162461bcd60e51b815260206004820152601860248201527f492064656d616e64206d6f72652072616e646f6d6e65737300000000000000006044820152606490fd5b61543e90614f21565b60199081549081905b8280156154b0576000190192818603908682116109855783851015611fa5577f944998273e477b495144fb8794c914197f3ccb46be2900f4698fd0ef743c969490866000520154906001600160801b038216106154a45750615447565b94505050505060801c90565b505050505050600090565b906040516154c881610b68565b91546001600160801b038116835260801c6020830152565b156154e757565b60405162461bcd60e51b81526020600482015260116024820152701d1c985b98da195cc81c995c5d5a5c9959607a1b6044820152606490fd5b60195460008060195581615532575050565b60198152600080516020615973833981519152918201915b82811061555657505050565b81815560010161554a565b1561556857565b60405162461bcd60e51b815260206004820152601c60248201527f7472616e63686520766573746564206672616374696f6e203d3d2030000000006044820152606490fd5b156155b457565b60405162461bcd60e51b815260206004820152601a60248201527f7472616e6368652074696d65206d75737420696e6372656173650000000000006044820152606490fd5b1561560057565b60405162461bcd60e51b815260206004820152602560248201527f7472616e63686520766573746564206672616374696f6e206d75737420696e63604482015264726561736560d81b6064820152608490fd5b60195490600160401b821015610b83576001820180601955821015611fa55760196000526001600160801b038151169060206001600160801b031991015160801b1617906000805160206159738339815191520155565b156156b157565b60405162461bcd60e51b815260206004820152602a60248201527f76657374696e6720656e6473206166746572203431303234343438303020284a604482015269616e203120323130302960b01b6064820152608490fd5b1561571057565b60405162461bcd60e51b815260206004820152602160248201527f6c617374207472616e636865206d757374207665737420616c6c20746f6b656e6044820152607360f81b6064820152608490fd5b9061576c825115156154e0565b615774615520565b600080805b845182101561587f5761580a906020936157bf6157b86157ac8761579d888c61508a565b5101516001600160801b031690565b6001600160801b031690565b1515615561565b6157f16157dd6157cf868a61508a565b51516001600160801b031690565b6001600160801b03808094169116116155ad565b806158008661579d878b61508a565b92169116116155f9565b600161582761581c6157cf848861508a565b9361579d848861508a565b9161583b615835828861508a565b51615653565b604080516001600160801b0386811682528516602082015282917f5104929ca78e46ba25dca9557731ec873a03ae745d3ee194d262cc4820662a1c91a20190615779565b9190506105809293506158a263f48657006001600160801b0380931611156156aa565b601454911614615709565b156158b457565b60405162461bcd60e51b815260206004820152601060248201526f2a3930b739b332b9103330b4b632b21760811b6044820152606490fd5b600180546001600160a01b0319166001600160a01b0390921691821790556040519081527fccdd1baf560d2682736fa25752c8ccc0c5fc4079b245b0acf7389776308d5b1f90602090a1565b9081039081116109855790565b908101809111610985579056fe66de8ffda797e3de9c05e8fc57b3bf0ec28a930d40b0d285d93c06501cf6a090944998273e477b495144fb8794c914197f3ccb46be2900f4698fd0ef743c9695a2646970667358221220d244c7850073204ab29c3aebefea3c185ad689a916f6444a6aecbb79c780db1664736f6c63430008150033",
  "linkReferences": {},
  "deployedLinkReferences": {}
}