{
  "_format": "hh-sol-artifact-1",
  "contractName": "FlatPriceSaleFactory_v_2_1",
  "sourceName": "contracts/sale/v2.1/FlatPriceSaleFactory.sol",
  "abi": [
    {
      "inputs": [
        {
          "internalType": "address",
          "name": "_implementation",
          "type": "address"
        }
      ],
      "stateMutability": "nonpayable",
      "type": "constructor"
    },
    {
      "anonymous": false,
      "inputs": [
        {
          "indexed": true,
          "internalType": "address",
          "name": "implementation",
          "type": "address"
        },
        {
          "indexed": true,
          "internalType": "contract FlatPriceSale_v_2_1",
          "name": "clone",
          "type": "address"
        },
        {
          "components": [
            {
              "internalType": "address payable",
              "name": "recipient",
              "type": "address"
            },
            {
              "internalType": "bytes32",
              "name": "merkleRoot",
              "type": "bytes32"
            },
            {
              "internalType": "uint256",
              "name": "saleMaximum",
              "type": "uint256"
            },
            {
              "internalType": "uint256",
              "name": "userMaximum",
              "type": "uint256"
            },
            {
              "internalType": "uint256",
              "name": "purchaseMinimum",
              "type": "uint256"
            },
            {
              "internalType": "uint256",
              "name": "startTime",
              "type": "uint256"
            },
            {
              "internalType": "uint256",
              "name": "endTime",
              "type": "uint256"
            },
            {
              "internalType": "uint256",
              "name": "maxQueueTime",
              "type": "uint256"
            },
            {
              "internalType": "string",
              "name": "URI",
              "type": "string"
            }
          ],
          "indexed": false,
          "internalType": "struct Config",
          "name": "config",
          "type": "tuple"
        },
        {
          "indexed": false,
          "internalType": "string",
          "name": "baseCurrency",
          "type": "string"
        },
        {
          "indexed": false,
          "internalType": "contract IOracleOrL2OracleWithSequencerCheck",
          "name": "nativeOracle",
          "type": "address"
        },
        {
          "indexed": false,
          "internalType": "bool",
          "name": "nativePaymentsEnabled",
          "type": "bool"
        }
      ],
      "name": "NewSale",
      "type": "event"
    },
    {
      "inputs": [],
      "name": "VERSION",
      "outputs": [
        {
          "internalType": "string",
          "name": "",
          "type": "string"
        }
      ],
      "stateMutability": "view",
      "type": "function"
    },
    {
      "inputs": [],
      "name": "implementation",
      "outputs": [
        {
          "internalType": "address",
          "name": "",
          "type": "address"
        }
      ],
      "stateMutability": "view",
      "type": "function"
    },
    {
      "inputs": [
        {
          "internalType": "address",
          "name": "_owner",
          "type": "address"
        },
        {
          "components": [
            {
              "internalType": "address payable",
              "name": "recipient",
              "type": "address"
            },
            {
              "internalType": "bytes32",
              "name": "merkleRoot",
              "type": "bytes32"
            },
            {
              "internalType": "uint256",
              "name": "saleMaximum",
              "type": "uint256"
            },
            {
              "internalType": "uint256",
              "name": "userMaximum",
              "type": "uint256"
            },
            {
              "internalType": "uint256",
              "name": "purchaseMinimum",
              "type": "uint256"
            },
            {
              "internalType": "uint256",
              "name": "startTime",
              "type": "uint256"
            },
            {
              "internalType": "uint256",
              "name": "endTime",
              "type": "uint256"
            },
            {
              "internalType": "uint256",
              "name": "maxQueueTime",
              "type": "uint256"
            },
            {
              "internalType": "string",
              "name": "URI",
              "type": "string"
            }
          ],
          "internalType": "struct Config",
          "name": "_config",
          "type": "tuple"
        },
        {
          "internalType": "string",
          "name": "_baseCurrency",
          "type": "string"
        },
        {
          "internalType": "bool",
          "name": "_nativePaymentsEnabled",
          "type": "bool"
        },
        {
          "internalType": "contract IOracleOrL2OracleWithSequencerCheck",
          "name": "_nativeTokenPriceOracle",
          "type": "address"
        },
        {
          "internalType": "contract IERC20Upgradeable[]",
          "name": "tokens",
          "type": "address[]"
        },
        {
          "internalType": "contract IOracleOrL2OracleWithSequencerCheck[]",
          "name": "oracles",
          "type": "address[]"
        },
        {
          "internalType": "uint8[]",
          "name": "decimals",
          "type": "uint8[]"
        }
      ],
      "name": "newSale",
      "outputs": [
        {
          "internalType": "contract FlatPriceSale_v_2_1",
          "name": "sale",
          "type": "address"
        }
      ],
      "stateMutability": "nonpayable",
      "type": "function"
    }
  ],
  "bytecode": "0x60a03461007f57601f61073d38819003918201601f19168301916001600160401b038311848410176100845780849260209460405283398101031261007f57516001600160a01b038116810361007f576080526040516106a2908161009b82396080518181816102160152818161024f015281816102f701526105420152f35b600080fd5b634e487b7160e01b600052604160045260246000fdfe608080604052600436101561001357600080fd5b60003560e01c9081635c60da1b1461052f575080635f76426d146100eb5763ffa1ad741461004057600080fd5b346100e65760003660031901126100e6576040516040810181811067ffffffffffffffff8211176100d05760405260038152602090620322e360ec1b82820152604051828193825282519081818401526000935b8285106100b7575050604092506000838284010152601f80199101168101030190f35b8481018201518686016040015293810193859350610094565b634e487b7160e01b600052604160045260246000fd5b600080fd5b346100e6576101003660031901126100e6576004356001600160a01b03811681036100e65760243567ffffffffffffffff81116100e65761012060031982360301126100e65760443567ffffffffffffffff81116100e657366023820112156100e65767ffffffffffffffff8160040135116100e6573660248260040135830101116100e65760643580151581036100e657608435906001600160a01b03821682036100e65760a43567ffffffffffffffff81116100e6576101b1903690600401610571565b9060c43567ffffffffffffffff81116100e6576101d2903690600401610571565b92909367ffffffffffffffff60e435116100e6576101f53660e435600401610571565b969097763d602d80600a3d3981f3363d3d373d3d3d363d7300000062ffffff7f000000000000000000000000000000000000000000000000000000000000000060881c16176000526e5af43d82803e903d91602b57fd5bf37f000000000000000000000000000000000000000000000000000000000000000060781b1760205260018060a01b03603760096000f016998a156104f1578a604051608081527f8cbdcd452e06fb30ddd0c122823be8f8622979a6c7acad4f6cc6501e200dd4976102dd6102c760808401866004016105c3565b83810360208501528660040135602488016105a2565b6001600160a01b03878116604085015288151560608501527f000000000000000000000000000000000000000000000000000000000000000016929081900390a38a3b156100e65760405163334d684960e11b81526001600160a01b03909c166004808e019190915261010060248e01528c9a999897969594939291610369916101048d0191016105c3565b8a81036003190160448c0152610387916004810135906024016105a2565b91151560648a01526001600160a01b031660848901528781036003190160a489015281815260200191906000905b8082106104b0575050508581036003190160c487015281815260200191906000905b808210610475575050508381036003190160e485015281815260200191906000905b80821061044a575050509080600092038183855af1801561043e57610424575b602090604051908152f35b67ffffffffffffffff82116100d057602091604052610419565b6040513d6000823e3d90fd5b91809450929092359060ff82168092036100e6576020816001938293520194019201859392916103f9565b94955092939092918335906001600160a01b03821682036100e65760208091600193848060a01b0316815201940192018795949392916103d7565b9697509495939492939092918335906001600160a01b03821682036100e65760208091600193848060a01b03168152019401920189979695949392916103b5565b60405162461bcd60e51b8152602060048201526016602482015275115490cc4c4d8dce8818dc99585d194819985a5b195960521b6044820152606490fd5b346100e65760003660031901126100e6577f00000000000000000000000000000000000000000000000000000000000000006001600160a01b03168152602090f35b9181601f840112156100e65782359167ffffffffffffffff83116100e6576020808501948460051b0101116100e657565b908060209392818452848401376000828201840152601f01601f1916010190565b9061012082356001600160a01b038116908190036100e65782526020830135602083015260408301356040830152606083013560608301526080830135608083015260a083013560a083015260c083013560c083015260e083013560e08301526101009283810135601e19823603018112156100e65701906020823592019267ffffffffffffffff83116100e65782360384136100e657816106699582015201916105a2565b9056fea26469706673582212206384ad1309da630135054b6ba25cf21054e31e574e4354cc3f74d8cf39f8094664736f6c63430008150033",
  "linkReferences": {},
  "deployedLinkReferences": {}
}