{
  "_format": "hh-sol-artifact-1",
  "contractName": "FlatPriceSaleFactory_v_3",
  "sourceName": "contracts/sale/v3/FlatPriceSaleFactory.sol",
  "abi": [
    {
      "inputs": [
        {
          "internalType": "address",
          "name": "_implementation",
          "type": "address"
        }
      ],
      "stateMutability": "nonpayable",
      "type": "constructor"
    },
    {
      "anonymous": false,
      "inputs": [
        {
          "indexed": true,
          "internalType": "address",
          "name": "implementation",
          "type": "address"
        },
        {
          "indexed": true,
          "internalType": "contract FlatPriceSale_v_3",
          "name": "clone",
          "type": "address"
        },
        {
          "components": [
            {
              "internalType": "address payable",
              "name": "recipient",
              "type": "address"
            },
            {
              "internalType": "bytes32",
              "name": "merkleRoot",
              "type": "bytes32"
            },
            {
              "internalType": "uint256",
              "name": "saleMaximum",
              "type": "uint256"
            },
            {
              "internalType": "uint256",
              "name": "userMaximum",
              "type": "uint256"
            },
            {
              "internalType": "uint256",
              "name": "purchaseMinimum",
              "type": "uint256"
            },
            {
              "internalType": "uint256",
              "name": "startTime",
              "type": "uint256"
            },
            {
              "internalType": "uint256",
              "name": "endTime",
              "type": "uint256"
            },
            {
              "internalType": "uint256",
              "name": "maxQueueTime",
              "type": "uint256"
            },
            {
              "internalType": "string",
              "name": "URI",
              "type": "string"
            }
          ],
          "indexed": false,
          "internalType": "struct Config",
          "name": "config",
          "type": "tuple"
        },
        {
          "indexed": false,
          "internalType": "string",
          "name": "baseCurrency",
          "type": "string"
        },
        {
          "indexed": false,
          "internalType": "contract IOracleOrL2OracleWithSequencerCheck",
          "name": "nativeOracle",
          "type": "address"
        },
        {
          "indexed": false,
          "internalType": "bool",
          "name": "nativePaymentsEnabled",
          "type": "bool"
        }
      ],
      "name": "NewSale",
      "type": "event"
    },
    {
      "anonymous": false,
      "inputs": [
        {
          "indexed": true,
          "internalType": "address",
          "name": "previousOwner",
          "type": "address"
        },
        {
          "indexed": true,
          "internalType": "address",
          "name": "newOwner",
          "type": "address"
        }
      ],
      "name": "OwnershipTransferred",
      "type": "event"
    },
    {
      "inputs": [],
      "name": "VERSION",
      "outputs": [
        {
          "internalType": "string",
          "name": "",
          "type": "string"
        }
      ],
      "stateMutability": "view",
      "type": "function"
    },
    {
      "inputs": [],
      "name": "implementation",
      "outputs": [
        {
          "internalType": "address",
          "name": "",
          "type": "address"
        }
      ],
      "stateMutability": "view",
      "type": "function"
    },
    {
      "inputs": [
        {
          "internalType": "address",
          "name": "_owner",
          "type": "address"
        },
        {
          "components": [
            {
              "internalType": "address payable",
              "name": "recipient",
              "type": "address"
            },
            {
              "internalType": "bytes32",
              "name": "merkleRoot",
              "type": "bytes32"
            },
            {
              "internalType": "uint256",
              "name": "saleMaximum",
              "type": "uint256"
            },
            {
              "internalType": "uint256",
              "name": "userMaximum",
              "type": "uint256"
            },
            {
              "internalType": "uint256",
              "name": "purchaseMinimum",
              "type": "uint256"
            },
            {
              "internalType": "uint256",
              "name": "startTime",
              "type": "uint256"
            },
            {
              "internalType": "uint256",
              "name": "endTime",
              "type": "uint256"
            },
            {
              "internalType": "uint256",
              "name": "maxQueueTime",
              "type": "uint256"
            },
            {
              "internalType": "string",
              "name": "URI",
              "type": "string"
            }
          ],
          "internalType": "struct Config",
          "name": "_config",
          "type": "tuple"
        },
        {
          "internalType": "string",
          "name": "_baseCurrency",
          "type": "string"
        },
        {
          "internalType": "bool",
          "name": "_nativePaymentsEnabled",
          "type": "bool"
        },
        {
          "internalType": "contract IOracleOrL2OracleWithSequencerCheck",
          "name": "_nativeTokenPriceOracle",
          "type": "address"
        },
        {
          "internalType": "contract IERC20Upgradeable[]",
          "name": "tokens",
          "type": "address[]"
        },
        {
          "internalType": "contract IOracleOrL2OracleWithSequencerCheck[]",
          "name": "oracles",
          "type": "address[]"
        },
        {
          "internalType": "uint8[]",
          "name": "decimals",
          "type": "uint8[]"
        }
      ],
      "name": "newSale",
      "outputs": [
        {
          "internalType": "contract FlatPriceSale_v_3",
          "name": "sale",
          "type": "address"
        }
      ],
      "stateMutability": "nonpayable",
      "type": "function"
    },
    {
      "inputs": [],
      "name": "owner",
      "outputs": [
        {
          "internalType": "address",
          "name": "",
          "type": "address"
        }
      ],
      "stateMutability": "view",
      "type": "function"
    },
    {
      "inputs": [],
      "name": "renounceOwnership",
      "outputs": [],
      "stateMutability": "nonpayable",
      "type": "function"
    },
    {
      "inputs": [
        {
          "internalType": "address",
          "name": "newOwner",
          "type": "address"
        }
      ],
      "name": "transferOwnership",
      "outputs": [],
      "stateMutability": "nonpayable",
      "type": "function"
    },
    {
      "inputs": [
        {
          "internalType": "address",
          "name": "_implementation",
          "type": "address"
        }
      ],
      "name": "upgradeFutureSales",
      "outputs": [],
      "stateMutability": "nonpayable",
      "type": "function"
    }
  ],
  "bytecode": "0x6080346100a757601f61091e38819003918201601f19168301916001600160401b038311848410176100ac578084926020946040528339810103126100a757516001600160a01b0390818116908190036100a75760005460018060a01b0319903382821617600055604051933391167f8be0079c531659141344cd1fd0a4f28419497f9722a3daafe3b4186f6b6457e0600080a3600154161760015561085b90816100c38239f35b600080fd5b634e487b7160e01b600052604160045260246000fdfe608080604052600436101561001357600080fd5b60003560e01c9081635c60da1b14610698575080635f76426d146102a5578063715018a61461024c5780637bfce4df146102095780638da5cb5b146101e0578063f2fde38b146101175763ffa1ad741461006c57600080fd5b34610112576000366003190112610112576040516040810181811067ffffffffffffffff8211176100fc5760405260038152602090620332e360ec1b82820152604051828193825282519081818401526000935b8285106100e3575050604092506000838284010152601f80199101168101030190f35b84810182015186860160400152938101938593506100c0565b634e487b7160e01b600052604160045260246000fd5b600080fd5b34610112576020366003190112610112576101306106bc565b610138610703565b6001600160a01b0390811690811561018c57600054826bffffffffffffffffffffffff60a01b821617600055167f8be0079c531659141344cd1fd0a4f28419497f9722a3daafe3b4186f6b6457e0600080a3005b60405162461bcd60e51b815260206004820152602660248201527f4f776e61626c653a206e6577206f776e657220697320746865207a65726f206160448201526564647265737360d01b6064820152608490fd5b34610112576000366003190112610112576000546040516001600160a01b039091168152602090f35b34610112576020366003190112610112576102226106bc565b61022a610703565b600180546001600160a01b0319166001600160a01b0392909216919091179055005b3461011257600036600319011261011257610265610703565b600080546001600160a01b0319811682556001600160a01b03167f8be0079c531659141344cd1fd0a4f28419497f9722a3daafe3b4186f6b6457e08280a3005b3461011257610100366003190112610112576102bf6106bc565b60243567ffffffffffffffff81116101125761012060031982360301126101125760443567ffffffffffffffff811161011257366023820112156101125767ffffffffffffffff8160040135116101125736602482600401358301011161011257606435801515810361011257608435906001600160a01b03821682036101125760a43567ffffffffffffffff8111610112576103609036906004016106d2565b9060c43567ffffffffffffffff8111610112576103819036906004016106d2565b92909360e43567ffffffffffffffff8111610112576103a49036906004016106d2565b9690976e5af43d82803e903d91602b57fd5bf3600154763d602d80600a3d3981f3363d3d373d3d3d363d7300000062ffffff8260881c16176000526effffffffffffffffffffffffffffff199060781b161760205260018060a01b03603760096000f016998a1561065a578a60018060a01b03600154167f8cbdcd452e06fb30ddd0c122823be8f8622979a6c7acad4f6cc6501e200dd497604051608081528061046d610457608083018860040161077c565b8281036020840152886004013560248a0161075b565b6001600160a01b038916604083015289151560608301520390a38a3b156101125760405163334d684960e11b81526001600160a01b03909c166004808e019190915261010060248e01528c9a9998979695949392916104d2916101048d01910161077c565b8a81036003190160448c01526104f09160048101359060240161075b565b91151560648a01526001600160a01b031660848901528781036003190160a489015281815260200191906000905b808210610619575050508581036003190160c487015281815260200191906000905b8082106105de575050508381036003190160e485015281815260200191906000905b8082106105b3575050509080600092038183855af180156105a75761058d575b602090604051908152f35b67ffffffffffffffff82116100fc57602091604052610582565b6040513d6000823e3d90fd5b91809450929092359060ff821680920361011257602081600193829352019401920185939291610562565b94955092939092918335906001600160a01b03821682036101125760208091600193848060a01b031681520194019201879594939291610540565b9697509495939492939092918335906001600160a01b03821682036101125760208091600193848060a01b031681520194019201899796959493929161051e565b60405162461bcd60e51b8152602060048201526016602482015275115490cc4c4d8dce8818dc99585d194819985a5b195960521b6044820152606490fd5b34610112576000366003190112610112576001546001600160a01b03168152602090f35b600435906001600160a01b038216820361011257565b9181601f840112156101125782359167ffffffffffffffff8311610112576020808501948460051b01011161011257565b6000546001600160a01b0316330361071757565b606460405162461bcd60e51b815260206004820152602060248201527f4f776e61626c653a2063616c6c6572206973206e6f7420746865206f776e65726044820152fd5b908060209392818452848401376000828201840152601f01601f1916010190565b9061012082356001600160a01b038116908190036101125782526020830135602083015260408301356040830152606083013560608301526080830135608083015260a083013560a083015260c083013560c083015260e083013560e08301526101009283810135601e19823603018112156101125701906020823592019267ffffffffffffffff8311610112578236038413610112578161082295820152019161075b565b9056fea2646970667358221220dd73d8dd3a20ef8030e6e15d9854239ff7f271433eb1a17272627ab559bb3c0b64736f6c63430008150033",
  "linkReferences": {},
  "deployedLinkReferences": {}
}