{
  "_format": "hh-sol-artifact-1",
  "contractName": "ContinuousVestingMerkleDistributorFactory_v_4_0",
  "sourceName": "contracts/claim/distributor-v4/ContinuousVestingMerkleDistributorFactory.sol",
  "abi": [
    {
      "inputs": [
        {
          "internalType": "address",
          "name": "implementation",
          "type": "address"
        }
      ],
      "stateMutability": "nonpayable",
      "type": "constructor"
    },
    {
      "anonymous": false,
      "inputs": [
        {
          "indexed": true,
          "internalType": "address",
          "name": "distributor",
          "type": "address"
        }
      ],
      "name": "DistributorDeployed",
      "type": "event"
    },
    {
      "inputs": [
        {
          "internalType": "contract IERC20",
          "name": "_token",
          "type": "address"
        },
        {
          "internalType": "uint256",
          "name": "_total",
          "type": "uint256"
        },
        {
          "internalType": "string",
          "name": "_uri",
          "type": "string"
        },
        {
          "internalType": "uint256",
          "name": "_start",
          "type": "uint256"
        },
        {
          "internalType": "uint256",
          "name": "_cliff",
          "type": "uint256"
        },
        {
          "internalType": "uint256",
          "name": "_end",
          "type": "uint256"
        },
        {
          "internalType": "bytes32",
          "name": "_merkleRoot",
          "type": "bytes32"
        },
        {
          "internalType": "uint160",
          "name": "_maxDelayTime",
          "type": "uint160"
        },
        {
          "internalType": "address",
          "name": "_owner",
          "type": "address"
        },
        {
          "internalType": "address",
          "name": "_feeOrSupplyHolder",
          "type": "address"
        },
        {
          "internalType": "bool",
          "name": "_autoPull",
          "type": "bool"
        },
        {
          "internalType": "contract INetworkConfig",
          "name": "_networkConfig",
          "type": "address"
        },
        {
          "internalType": "uint256",
          "name": "_nonce",
          "type": "uint256"
        }
      ],
      "name": "deployDistributor",
      "outputs": [
        {
          "internalType": "contract ContinuousVestingMerkleDistributor_v_4_0",
          "name": "distributor",
          "type": "address"
        }
      ],
      "stateMutability": "nonpayable",
      "type": "function"
    },
    {
      "inputs": [
        {
          "internalType": "uint256",
          "name": "",
          "type": "uint256"
        }
      ],
      "name": "distributors",
      "outputs": [
        {
          "internalType": "address",
          "name": "",
          "type": "address"
        }
      ],
      "stateMutability": "view",
      "type": "function"
    },
    {
      "inputs": [],
      "name": "getImplementation",
      "outputs": [
        {
          "internalType": "address",
          "name": "",
          "type": "address"
        }
      ],
      "stateMutability": "view",
      "type": "function"
    },
    {
      "inputs": [
        {
          "internalType": "contract IERC20",
          "name": "_token",
          "type": "address"
        },
        {
          "internalType": "uint256",
          "name": "_total",
          "type": "uint256"
        },
        {
          "internalType": "string",
          "name": "_uri",
          "type": "string"
        },
        {
          "internalType": "uint256",
          "name": "_start",
          "type": "uint256"
        },
        {
          "internalType": "uint256",
          "name": "_cliff",
          "type": "uint256"
        },
        {
          "internalType": "uint256",
          "name": "_end",
          "type": "uint256"
        },
        {
          "internalType": "bytes32",
          "name": "_merkleRoot",
          "type": "bytes32"
        },
        {
          "internalType": "uint160",
          "name": "_maxDelayTime",
          "type": "uint160"
        },
        {
          "internalType": "address",
          "name": "_owner",
          "type": "address"
        },
        {
          "internalType": "address",
          "name": "_feeOrSupplyHolder",
          "type": "address"
        },
        {
          "internalType": "bool",
          "name": "_autoPull",
          "type": "bool"
        },
        {
          "internalType": "contract INetworkConfig",
          "name": "_networkConfig",
          "type": "address"
        },
        {
          "internalType": "uint256",
          "name": "_nonce",
          "type": "uint256"
        }
      ],
      "name": "predictDistributorAddress",
      "outputs": [
        {
          "internalType": "address",
          "name": "",
          "type": "address"
        }
      ],
      "stateMutability": "view",
      "type": "function"
    }
  ],
  "bytecode": "0x60a03461007657601f6106ca38819003918201601f19168301916001600160401b0383118484101761007b5780849260209460405283398101031261007657516001600160a01b03811681036100765760805260405161063890816100928239608051818181605e0152818160d8015261031d0152f35b600080fd5b634e487b7160e01b600052604160045260246000fdfe6080604052600436101561001257600080fd5b60003560e01c806350b492ba1461037b57806377393d46146102cf57806382c0d824146100925763aaf10f421461004857600080fd5b3461008d57600036600319011261008d576040517f00000000000000000000000000000000000000000000000000000000000000006001600160a01b03168152602090f35b600080fd5b3461008d576100c66100a336610429565b81838a9f93999e9d9b9a958f8f998f9b8f928f9a839b839b9f879f968f97610562565b6e5af43d82803e903d91602b57fd5bf37f0000000000000000000000000000000000000000000000000000000000000000763d602d80600a3d3981f3363d3d373d3d3d363d7300000062ffffff8260881c161760005260781b1760205260018060a01b0390603760096000f5169a8b1561028a57600054680100000000000000008110156102685761015f8160018f93016000556103bd565b81546001600160a01b0360039290921b91821b191692901b9190911790556040519c8c7f448708bcd9fda3435ba79d40bb017e884dcbed0b1e972743c8fd32f6c5ff47bb600080a28c3b1561008d576101e98e9b8c9b8c60009f600490633d76c57760e11b835260018060a01b031691015260248d015261018060448d01526101848c0190610522565b60648b019990995260848a015260a489015260c48801526001600160a01b0390811660e488015290811661010487015290811661012486015290151561014485015216610164830152038183855af1801561027e5761024e575b602090604051908152f35b67ffffffffffffffff821161026857602091604052610243565b634e487b7160e01b600052604160045260246000fd5b6040513d6000823e3d90fd5b60405162461bcd60e51b815260206004820152601760248201527f455243313136373a2063726561746532206661696c65640000000000000000006044820152606490fd5b3461008d576020605560436102fb6102e636610429565b9b9a909a999199989298979397969496610562565b604051903060388301526f5af43d82803e903d91602b57fd5bf3ff60248301527f00000000000000000000000000000000000000000000000000000000000000006014830152733d602d80600a3d3981f3363d3d373d3d3d363d73825260588201526037600c820120607882015201206040519060018060a01b03168152f35b3461008d57602036600319011261008d5760043560005481101561008d576103a46020916103bd565b905460405160039290921b1c6001600160a01b03168152f35b9060009182548110156103f3578280527f290decd9548b62a8d60345a988386fc84ba6bc95484008f6362f93160ef3e563019190565b634e487b7160e01b83526032600452602483fd5b90601f8019910116810190811067ffffffffffffffff82111761026857604052565b6101a060031982011261008d576001600160a01b0391600435838116810361008d5792602435926044359067ffffffffffffffff80831161008d578160238401121561008d5782600401359081116102685760405191610493601f8301601f191660200184610407565b8183526024828501011161008d57806024602094018484013760009283918301015292606435926084359260a4359260c4359260e4358181168103610516579261010435828116810361051e579261012435838116810361051a579261014435801515810361051657926101643591821682036105135750906101843590565b80fd5b8380fd5b8280fd5b5080fd5b919082519283825260005b84811061054e575050826000602080949584010152601f8019910116010190565b60208183018101518483018201520161052d565b9b98929994969b9a959a979091976040519c8d9c8d600160a01b600190039a8b98899788809716602085015260408401526101a09d8e60608501526101c084016105ab91610522565b9f608084015260a083015260c082015260e00152166101008c0152166101208a01521661014088015215156101608701521661018085015283015203601f19810182526105f89082610407565b805190602001209056fea264697066735822122020ca0a8c6baca39df2b9fafd1975ca3c61933a937f2eb244f9ea6285813da42564736f6c63430008150033",
  "linkReferences": {},
  "deployedLinkReferences": {}
}